:0400000081EF00F09C
:1000080040004000400040004000400040004000E8
:1000180040004000400040004000400040004000D8
:1000280040004000400040004000400040004000C8
:1000380040004000400040004000400040004000B8
:1000480040004000400040004000400040004000A8
:100058004000400040004000400040004000400098
:100068004000FA6740004000400040004000400067
:100078004000400040004000400040004000400078
:100088004000400040004000400040004000400068
:100098004000400040004000400040004000400058
:1000A8004000400040004000400040004000400048
:1000B8004000400040004000400040004000400038
:1000C8004000400040004000400040004000400028
:1000D8004000400040004000400040004000400018
:1000E8004000400040004000400040004000400008
:0E00F8004000400040004000FF00C7EFC9F08C
:10D9620000819FE0FC407E80FC00001000C35CE769
:10D97200C358E77F00436F7079726967687420311A
:10D98200393739202863292062792044696769740C
:10D99200616C2052657365617263682020202020CB
:10D9A2002000000000000000000000000000000055
:10D9B2000000000000000000000000000000000065
:10D9C2000000000000000000000000000000000055
:10D9D2000000000000000000000000000000000045
:10D9E2000000000000000000000000000000000035
:10D9F200000000000008E400005F0E02C30500C53D
:10DA0200CD8CE4C1C93E0DCD92E43E0AC392E43E00
:10DA120020C392E4C5CD98E4E17EB7C823E5CD8C5E
:10DA2200E4E1C3ACE40E0DC305005F0E0EC30500B6
:10DA3200CD050032EEEB3CC90E0FC3C3E4AF32EDAD
:10DA4200EB11CDEBC3CBE40E10C3C3E40E11C3C381
:10DA5200E40E12C3C3E411CDEBC3DFE40E13C3051E
:10DA620000CD0500B7C90E14C3F4E411CDEBC3F920
:10DA7200E40E15C3F4E40E16C3C3E40E17C3050087
:10DA82001EFF0E20C30500CD13E58787878721EF90
:10DA9200EBB6320400C93AEFEB320400C9FE61D89A
:10DAA200FE7BD0E65FC93AABEBB7CA96E53AEFEB3D
:10DAB200B73E00C4BDE411ACEBCDCBE4CA96E53A67
:10DAC200BBEB3D32CCEB11ACEBCDF9E4C296E511E8
:10DAD20007E42180000680CD42E821BAEB3600231C
:10DAE2003511ACEBCDDAE4CA96E53AEFEBB7C4BD3B
:10DAF200E42108E4CDACE4CDC2E5CAA7E5CDDDE57D
:10DB0200C382E7CDDDE5CD1AE50E0A1106E4CD05A7
:10DB120000CD29E52107E4462378B7CABAE57ECDD0
:10DB220030E57705C3ABE5772108E42288E4C90E26
:10DB32000BCD0500B7C80E01CD0500B7C90E19C33C
:10DB420005001180000E1AC3050021ABEB7EB7C899
:10DB52003600AFCDBDE411ACEBCDEFE43AEFEBC351
:10DB6200BDE41128E72100EC06061ABEC2CFE71376
:10DB72002305C2FDE5C9CD98E42A8AE47EFE20CAC7
:10DB820022E6B7CA22E6E5CD8CE4E123C30FE63EE6
:10DB92003FCD8CE4CD98E4CDDDE5C382E71AB7C86A
:10DBA200FE20DA09E6C8FE3DC8FE5FC8FE2EC8FEAA
:10DBB2003AC8FE3BC8FE3CC8FE3EC8C91AB7C8FEFA
:10DBC20020C013C34FE6856FD024C93E0021CDEBA0
:10DBD200CD59E6E5E5AF32F0EB2A88E4EBCD4FE62E
:10DBE200EB228AE4EBE11AB7CA89E6DE4047131A50
:10DBF200FE3ACA90E61B3AEFEB77C396E67832F02C
:10DC0200EB70130608CD30E6CAB9E623FE2AC2A994
:10DC1200E6363FC3ABE6771305C298E6CD30E6CAD7
:10DC2200C0E613C3AFE623362005C2B9E60603FEFB
:10DC32002EC2E9E613CD30E6CAE9E623FE2AC2D9AE
:10DC4200E6363FC3DBE6771305C2C8E6CD30E6CA47
:10DC5200F0E613C3DFE623362005C2E9E606032316
:10DC6200360005C2F2E6EB2288E4E1010B00237ED6
:10DC7200FE3FC209E7040DC201E778B7C944495221
:10DC82002045524120545950455341564552454E24
:10DC920020555345520016000000002110E70E00E7
:10DCA20079FE06D011CEEB06041ABEC24FE713234B
:10DCB20005C23CE71AFE20C254E779C92305C24FC8
:10DCC200E70CC333E7AF3207E431ABEBC5791F1F73
:10DCD2001F1FE60F5FCD15E5CDB8E432ABEBC1797E
:10DCE200E60F32EFEBCDBDE43A07E4B7C298E73175
:10DCF200ABEBCD98E4CDD0E5C641CD8CE43E3ECD34
:10DD02008CE4CD39E5118000CDD8E5CDD0E532EFF8
:10DD1200EBCD5EE6C409E63AF0EBB7C2A5EACD2E3A
:10DD2200E721C1E75F160019197E23666FE977E8DC
:10DD32001FE95DE9ADE910EA8EEAA5EA21F3762250
:10DD420000E42100E4E901DFE7C3A7E4526561646E
:10DD5200206572726F720001F0E7C3A7E44E6F2074
:10DD620066696C6500CD5EE63AF0EBB7C209E62162
:10DD7200CEEB010B007EFE20CA33E823D630FE0A2A
:10DD8200D209E65778E6E0C209E67807070780DAA3
:10DD920009E680DA09E682DA09E6470DC208E8C92F
:10DDA2007EFE20C209E6230DC233E878C906037E4F
:10DDB20012231305C242E8C921800081CD59E67EB3
:10DDC200C9AF32CDEB3AF0EBB7C83D21EFEBBEC89D
:10DDD200C3BDE43AF0EBB7C83D21EFEBBEC83AEF62
:10DDE200EBC3BDE4CD5EE6CD54E821CEEB7EFE2052
:10DDF200C28FE8060B363F2305C288E81E00D5CD48
:10DE0200E9E4CCEAE7CA1BE93AEEEB0F0F0FE66052
:10DE12004F3E0ACD4BE817DA0FE9D17B1CD5E6035A
:10DE2200F5C2CCE8CD98E4C5CDD0E5C1C641CD92CE
:10DE3200E43E3ACD92E4C3D4E8CDA2E43E3ACD9298
:10DE4200E4CDA2E4060178CD4BE8E67FFE20C2F9DC
:10DE5200E8F1F5FE03C2F7E83E09CD4BE8E67FFEA6
:10DE620020CA0EE93E20CD92E40478FE0CD20EE9DF
:10DE7200FE09C2D9E8CDA2E4C3D9E8F1CDC2E5C218
:10DE82001BE9CDE4E4C398E8D1C386EBCD5EE6FEA0
:10DE92000BC242E90152E9CDA7E4CD39E52107E4FD
:10DEA20035C282E7237EFE59C282E7232288E4CD6F
:10DEB20054E811CDEBCDEFE43CCCEAE7C386EB416D
:10DEC2006C6C2028792F6E293F00CD5EE6C209E6F0
:10DED200CD54E8CDD0E4CAA7E9CD98E421F1EB36E0
:10DEE200FF21F1EB7EFE80DA87E9E5CDFEE4E1C2B7
:10DEF200A0E9AF7734218000CD59E67EFE1ACA86AA
:10DF0200EBCD8CE4CDC2E5C286EBC374E93DCA8693
:10DF1200EBCDD9E7CD66E8C309E6CDF8E7F5CD5EEE
:10DF2200E6C209E6CD54E811CDEBD5CDEFE4D1CD73
:10DF320009E5CAFBE9AF32EDEBF16F2600291100CA
:10DF4200017CB5CAF1E92BE521800019E5CDD8E5C0
:10DF520011CDEBCD04E5D1E1C2FBE9C3D4E911CD8A
:10DF6200EBCDDAE43CC201EA0107EACDA7E4CDD564
:10DF7200E5C386EB4E6F20737061636500CD5EE68C
:10DF8200C209E63AF0EBF5CD54E8CDE9E4C279EA0C
:10DF920021CDEB11DDEB0610CD42E82A88E4EBCD72
:10DFA2004FE6FE3DCA3FEAFE5FC273EAEB232288D8
:10DFB200E4CD5EE6C273EAF14721F0EB7EB7CA59BF
:10DFC200EAB870C273EA70AF32CDEBCDE9E4CA6D44
:10DFD200EA11CDEBCD0EE5C386EBCDEAE7C386EBC6
:10DFE200CD66E8C309E60182EACDA7E4C386EB4623
:10DFF200696C652065786973747300CDF8E7FE106B
:10E00200D209E65F3ACEEBFE20CA09E6CD15E5C39A
:10E0120089EBCDF5E53ACEEBFE20C2C4EA3AF0EB4D
:10E02200B7CA89EB3D32EFEBCD29E5CDBDE4C3891B
:10E03200EB11D6EB1AFE20C209E6D5CD54E8D12168
:10E0420083EBCD40E8CDD0E4CA6BEB210001E5EBD8
:10E05200CDD8E511CDEBCDF9E4C201EBE1118000A1
:10E06200191100E47D937C9AD271EBC3E1EAE13DA0
:10E07200C271EBCD66E8CD5EE621F0EBE57E32CDF6
:10E08200EB3E10CD60E6E17E32DDEBAF32EDEB111F
:10E092005C0021CDEB0621CD42E82108E47EB7CA1F
:10E0A2003EEBFE20CA3EEB23C330EB06001181009B
:10E0B2007E12B7CA4FEB042313C343EB78328000BE
:10E0C200CD98E4CDD5E5CD1AE5CD000131ABEBCD50
:10E0D20029E5CDBDE4C382E7CD66E8C309E6017A4E
:10E0E200EBCDA7E4C386EB426164206C6F616400F0
:10E0F200434F4DCD66E8CD5EE63ACEEBD62021F019
:10E10200EBB6C209E6C382E700000000000000008F
:10E112000000000000000000000024242420202031
:10E1220020205355420000000000000000000000C3
:10E13200000000000000000000000020202020203D
:10E14200202020202020000000000020202020206D
:10E1520020202020202000000000000000000000FD
:10E162000000000000000000000000000000160097
:10E17200000000C311EC99ECA5ECABECB1ECEB2286
:10E1820043EFEB7B32D6F92100002245EF39220F13
:10E19200EF3141EFAF32E0F932DEF92174F9E5797E
:10E1A200FE29D04B2147EC5F160019195E23562A2F
:10E1B20043EFEBE903FAC8EE90EDCEEE12FA0FFA56
:10E1C200D4EEEDEEF3EEF8EEE1EDFEEE7EF883F83E
:10E1D20045F89CF8A5F8ABF8C8F8D7F8E0F8E6F8E7
:10E1E200ECF8F5F8FEF804F90AF911F92CF117F92F
:10E1F2001DF926F92DF941F947F94DF90EF853F9B0
:10E2020004EF04EF9BF921CAECCDE5ECFE03CA0052
:10E2120000C921D5ECC3B4EC21E1ECC3B4EC21DCA0
:10E22200ECCDE5ECC3000042646F732045727220AE
:10E232004F6E20203A202442616420536563746F3C
:10E24200722453656C6563742446696C6520522F91
:10E252004F24E5CDC9ED3A42EFC64132C6EC01BAD0
:10E26200ECCDD3EDC1CDD3ED210EEF7E3600B7C09C
:10E27200C309FACDFBECCD14EDD8F54FCD90EDF1FD
:10E28200C9FE0DC8FE0AC8FE09C8FE08C8FE20C99C
:10E292003A0EEFB7C245EDCD06FAE601C8CD09FA4E
:10E2A200FE13C242EDCD09FAFE03CA0000AFC93225
:10E2B2000EEF3E01C93A0AEFB7C262EDC5CD23EDBA
:10E2C200C1C5CD0CFAC1C53A0DEFB7C40FFAC17979
:10E2D200210CEFFE7FC834FE20D0357EB7C879FE10
:10E2E20008C279ED35C9FE0AC03600C979CD14EDF0
:10E2F200D290EDF50E5ECD48EDF1F6404F79FE0974
:10E30200C248ED0E20CD48ED3A0CEFE607C296ED7D
:10E31200C9CDACED0E20CD0CFA0E08C30CFA0E23BB
:10E32200CD48EDCDC9ED3A0CEF210BEFBED00E205A
:10E33200CD48EDC3B9ED0E0DCD48ED0E0AC348ED43
:10E342000AFE24C803C54FCD90EDC1C3D3ED3A0CEC
:10E35200EF320BEF2A43EF4E23E50600C5E5CDFB76
:10E36200ECE67FE1C1FE0DCAC1EEFE0ACAC1EEFEB5
:10E3720008C216EE78B7CAEFED053A0CEF320AEF93
:10E38200C370EEFE7FC226EE78B7CAEFED7E052B94
:10E39200C3A9EEFE05C237EEC5E5CDC9EDAF320B1E
:10E3A200EFC3F1EDFE10C248EEE5210DEF3E0196FE
:10E3B20077E1C3EFEDFE18C25FEEE13A0BEF210CFD
:10E3C200EFBED2E1ED35CDA4EDC34EEEFE15C26B2C
:10E3D200EECDB1EDE1C3E1EDFE12C2A6EEC5CDB1C7
:10E3E200EDC1E1E5C578B7CA8AEE234E05C5E5CD94
:10E3F2007FEDE1C1C378EEE53A0AEFB7CAF1ED214C
:10E402000CEF96320AEFCDA4ED210AEF35C299EE58
:10E41200C3F1ED237704C5E54FCD7FEDE1C17EFE6B
:10E422000378C2BDEEFE01CA0000B9DAEFEDE17079
:10E432000E0DC348EDCD06EDC301EFCD15FAC301B4
:10E44200EF793CCAE0EE3CCA06FAC30CFACD06FAF2
:10E45200B7CA91F9CD09FAC301EF3A0300C301EF3C
:10E4620021030071C9EB4D44C3D3EDCD23ED3245F9
:10E47200EFC93E01C301EF000200000000000000EE
:10E48200000000000000000000000000000000008A
:10E49200000000000000000000000000000000007A
:10E4A200000000000000000000000000000000006A
:10E4B20000000000210BEC5E2356EBE90C0DC81A9C
:10E4C200771323C350EF3A42EF4FCD1BFA7CB5C806
:10E4D2005E23562322B3F9232322B5F9232322B73D
:10E4E200F92323EB22D0F921B9F90E08CD4FEF2AF7
:10E4F200BBF9EB21C1F90E0FCD4FEF2AC6F97C21F2
:10E50200DDF936FFB7CA9DEF36003EFFB7C9CD1819
:10E51200FAAF2AB5F97723772AB7F9772377C9CDE6
:10E5220027FAC3BBEFCD2AFAB7C82109ECC34AEFD9
:10E532002AEAF90E02CDEAF022E5F922ECF921E508
:10E54200F94E23462AB7F95E23562AB5F97E236689
:10E552006F7993789AD2FAEFE52AC1F97B955F7ABF
:10E562009C57E12BC3E4EFE52AC1F919DA0FF079E0
:10E5720095789CDA0FF0EBE123C3FAEFE1C5D5E51C
:10E58200EB2ACEF919444DCD1EFAD12AB5F97323DF
:10E5920072D12AB7F9732372C179934F789A472AB5
:10E5A200D0F9EBCD30FA4D44C321FA21C3F94E3AEA
:10E5B200E3F9B71F0DC245F0473E08964F3AE2F91C
:10E5C2000DCA5CF0B717C353F080C92A43EF11108C
:10E5D2000019093ADDF9B7CA71F06E2600C9095E61
:10E5E2002356EBC9CD3EF04F0600CD5EF022E5F991
:10E5F200C92AE5F97DB4C93AC3F92AE5F9293DC228
:10E6020090F022E7F93AC4F94F3AE3F9A1B56F2243
:10E61200E5F9C92A43EF110C0019C92A43EF110F7A
:10E622000019EB21110019C9CDAEF07E32E3F9EBEE
:10E632007E32E1F9CDA6F03AC5F9A632E2F9C9CDAA
:10E64200AEF03AD5F9FE02C2DEF0AF4F3AE3F981FD
:10E6520077EB3AE1F977C90C0DC87CB71F677D1FCC
:10E662006FC3EBF00E802AB9F9AF86230DC2FDF01D
:10E67200C90C0DC829C305F1C53A42EF4F2101006B
:10E68200CD04F1C179B56F78B467C92AADF93A42C0
:10E69200EF4FCDEAF07DE601C921ADF94E2346CD1B
:10E6A2000BF122ADF92AC8F923EB2AB3F9732372CD
:10E6B200C9CD5EF1110900197E17D0210FECC34AB2
:10E6C200EFCD1EF1C8210DECC34AEF2AB9F93AE9A0
:10E6D200F9856FD024C92A43EF110E00197EC9CDE6
:10E6E20069F13600C9CD69F1F68077C92AEAF9EBFA
:10E6F2002AB3F97B96237A9EC9CD7FF1D813722B68
:10E7020073C97B956F7A9C67C90EFF2AECF9EB2AD5
:10E71200CCF9CD95F1D0C5CDF7F02ABDF9EB2AECB5
:10E72200F919C10CCAC4F1BEC8CD7FF1D0CD2CF10C
:10E73200C977C9CD9CF1CDE0F10E01CDB8EFC3DAB6
:10E74200F1CDE0F1CDB2EF21B1F9C3E3F121B9F995
:10E752004E2346C324FA2AB9F9EB2AB1F90E80C333
:10E762004FEF21EAF97E23BEC03CC921FFFF22EA16
:10E77200F9C92AC8F9EB2AEAF92322EAF9CD95F177
:10E78200D219F2C3FEF13AEAF9E60306058705C299
:10E7920020F232E9F9B7C0C5CDC3EFCDD4F1C1C380
:10E7A2009EF179E6073C5F57790F0F0FE61F4F780E
:10E7B2008787878787B14F780F0F0FE61F472ABFDA
:10E7C200F9097E071DC256F2C9D5CD35F2E6FEC162
:10E7D200B10F15C264F277C9CD5EF111100019C5EF
:10E7E2000E11D10DC8D53ADDF9B7CA88F2C5E54E8A
:10E7F2000600C38EF20DC54E2346E579B0CA9DF2DE
:10E802002AC6F97D917C98D45CF2E123C1C375F2EA
:10E812002AC6F90E03CDEAF023444D2ABFF9360089
:10E82200230B78B1C2B1F22ACAF9EB2ABFF97323DA
:10E8320072CDA1EF2AB3F93603233600CDFEF10ED5
:10E84200FFCD05F2CDF5F1C8CD5EF13EE5BECAD2EF
:10E85200F23A41EFBEC2F6F2237ED624C2F6F23D70
:10E862003245EF0E01CD6BF2CD8CF1C3D2F23AD428
:10E87200F9C301EFC5F53AC5F92F4779A04FF1A0C9
:10E8820091E61FC1C93EFF32D4F921D8F9712A435A
:10E89200EF22D9F9CDFEF1CDA1EF0E00CD05F2CDDB
:10E8A200F5F1CA94F32AD9F9EB1AFEE5CA4AF3D56F
:10E8B200CD7FF1D1D294F3CD5EF13AD8F94F060073
:10E8C20079B7CA83F31AFE3FCA7CF378FE0DCA7C7D
:10E8D200F3FE0C1ACA73F396E67FC22DF3C37CF3E0
:10E8E200C54ECD07F3C1C22DF31323040DC353F359
:10E8F2003AEAF9E6033245EF21D4F97E17D0AF7731
:10E90200C9CDFEF13EFFC301EFCD54F10E0CCD187F
:10E91200F3CDF5F1C8CD44F1CD5EF136E50E00CD73
:10E922006BF2CDC6F1CD2DF3C3A4F3505979B0CA21
:10E93200D1F30BD5C5CD35F21FD2ECF3C1D12AC626
:10E94200F97B957A9CD2F4F313C5D5424BCD35F2BF
:10E952001FD2ECF3D1C1C3C0F3173CCD64F2E1D1B5
:10E96200C979B0C2C0F3210000C90E001E20D5062D
:10E97200002A43EF09EBCD5EF1C1CD4FEFCDC3EFDE
:10E98200C3C6F1CD54F10E0CCD18F32A43EF7E111C
:10E9920010001977CDF5F1C8CD44F10E101E0CCD43
:10E9A20001F4CD2DF3C327F40E0CCD18F3CDF5F100
:10E9B200C80E001E0CCD01F4CD2DF3C340F40E0F92
:10E9C200CD18F3CDF5F1C8CDA6F07EF5E5CD5EF11B
:10E9D200EB2A43EF0E20D5CD4FEFCD78F1D1210CAC
:10E9E20000194E210F001946E1F17779BE78CA8BE2
:10E9F200F43E00DA8BF43E802A43EF110F001977C0
:10EA0200C97E23B62BC01A7713231A771B2BC9AFE3
:10EA12003245EF32EAF932EBF9CD1EF1C0CD69F1A0
:10EA2200E680C00E0FCD18F3CDF5F1C8011000CD70
:10EA32005EF109EB2A43EF090E103ADDF9B7CAE895
:10EA4200F47EB71AC2DBF477B7C2E1F47E12BEC21B
:10EA52001FF5C3FDF4CD94F4EBCD94F4EB1ABEC2D2
:10EA62001FF513231ABEC21FF50D13230DC2CDF4D9
:10EA720001ECFF09EB091ABEDA17F5770103000969
:10EA8200EB097E123EFF32D2F9C310F42145EF3575
:10EA9200C9CD54F12A43EFE521ACF92243EF0E012F
:10EAA200CD18F3CDF5F1E12243EFC8EB210F0019A8
:10EAB2000E11AF77230DC246F5210D001977CD8CCB
:10EAC200F1CDFDF3C378F1AF32D2F9CDA2F4CDF599
:10EAD200F1C82A43EF010C00097E3CE61F77CA8386
:10EAE200F5473AC5F9A021D2F9A6CA8EF5C3ACF50D
:10EAF20001020009347EE60FCAB6F50E0FCD18F3F7
:10EB0200CDF5F1C2ACF53AD3F93CCAB6F5CD24F550
:10EB1200CDF5F1CAB6F5C3AFF5CD5AF4CDBBF0AF22
:10EB2200C301EFCD05EFC378F13E0132D5F93EFFC7
:10EB320032D3F9CDBBF03AE3F921E1F9BEDAE6F5D9
:10EB4200FE80C2FBF5CD5AF5AF32E3F93A45EFB795
:10EB5200C2FBF5CD77F0CD84F0CAFBF5CD8AF0CDBE
:10EB6200D1EFCDB2EFC3D2F0C305EF3E0132D5F9FA
:10EB72003E0032D3F9CD54F12A43EFCD47F1CDBB5C
:10EB8200F03AE3F9FE80D205EFCD77F0CD84F00EB6
:10EB920000C26EF6CD3EF032D7F9010000B7CA3B93
:10EBA200F64F0BCD5EF0444DCDBEF37DB4C248F6B8
:10EBB2003E02C301EF22E5F9EB2A43EF01100009FF
:10EBC2003ADDF9B73AD7F9CA64F6CD64F173C36C8A
:10EBD200F64F060009097323720E023A45EFB7C0D9
:10EBE200C5CD8AF03AD5F93D3DC2BBF6C1C5793DE6
:10EBF2003DC2BBF6E52AB9F957772314F28CF6CD5C
:10EC0200E0F12AE7F90E0222E5F9C5CDD1EFC1CD37
:10EC1200B8EF2AE5F90E003AC4F947A5B823C29A1B
:10EC2200F6E122E5F9CDDAF1CDD1EFC1C5CDB8EFEC
:10EC3200C13AE3F921E1F9BEDAD2F677340E0200E5
:10EC420000210000F5CD69F1E67F77F1FE7FC20079
:10EC5200F73AD5F9FE01C200F7CDD2F0CD5AF5212F
:10EC620045EF7EB7C2FEF63D32E3F93600C3D2F07D
:10EC7200AF32D5F9C52A43EFEB212100197EE67F99
:10EC8200F57E17237E17E61F4F7E1F1F1F1FE60FFD
:10EC920047F1236E2C2D2E06C28BF7212000197707
:10ECA200210C00197996C247F7210E00197896E6D1
:10ECB2007FCA7FF7C5D5CDA2F4D1C12E033A45EF65
:10ECC2003CCA84F7210C001971210E001970CD5134
:10ECD200F43A45EF3CC27FF7C1C52E040CCA84F753
:10ECE200CD24F52E053A45EF3CCA84F7C1AFC301E6
:10ECF200EFE5CD69F136C0E1C17D3245EFC378F170
:10ED02000EFFCD03F7CCC1F5C90E00CD03F7CC033E
:10ED1200F6C9EB194E0600210C00197E0FE6808120
:10ED22004F3E0088477E0FE60F8047210E00197E76
:10ED320087878787F58047F5E17DE1B5E601C90E52
:10ED42000CCD18F32A43EF11210019E57223722327
:10ED520072CDF5F1CA0CF8CD5EF1110F00CDA5F719
:10ED6200E1E55F799623789E237B9EDA06F8732B82
:10ED7200702B71CD2DF3C3E4F7E1C92A43EF1120C3
:10ED820000CDA5F7212100197123702377C92AAF7D
:10ED9200F93A42EF4FCDEAF0E5EBCD59EFE1CC473E
:10EDA200EF7D1FD82AAFF94D44CD0BF122AFF9C345
:10EDB200A3F23AD6F92142EFBEC877C321F83EFF4B
:10EDC20032DEF92A43EF7EE61F3D32D6F9FE1ED22D
:10EDD20075F83A42EF32DFF97E32E0F9E6E077CDBC
:10EDE20045F83A41EF2A43EFB677C93E22C301EF15
:10EDF20021000022ADF922AFF9AF3242EF218000AB
:10EE020022B1F9CDDAF1C321F8CD72F1CD51F8C3B7
:10EE120051F4CD51F8C3A2F40E00EB7EFE3FCAC2FC
:10EE2200F8CDA6F07EFE3FC472F1CD51F80E0FCDA3
:10EE320018F3C3E9F12AD9F92243EFCD51F8CD2DC8
:10EE4200F3C3E9F1CD51F8CD9CF3C301F3CD51F8F1
:10EE5200C3BCF5CD51F8C3FEF5CD72F1CD51F8C367
:10EE620024F5CD51F8CD16F4C301F32AAFF9C32925
:10EE7200F93A42EFC301EFEB22B1F9C3DAF12ABF4B
:10EE8200F9C329F92AADF9C329F9CD51F8CD3BF4DB
:10EE9200C301F32ABBF92245EFC93AD6F9FEFFC2F4
:10EEA2003BF93A41EFC301EFE61F3241EFC9CD51C1
:10EEB200F8C393F7CD51F8C39CF7CD51F8C3D2F7FD
:10EEC2002A43EF7D2F5F7C2F2AAFF9A4577DA35FE2
:10EED2002AADF9EB22AFF97DA36F7CA26722ADF9CF
:10EEE200C93ADEF9B7CA91F92A43EF36003AE0F996
:10EEF200B7CA91F9773ADFF932D6F9CD45F82A0F38
:10EF0200EFF92A45EF7D44C9CD51F83E0232D5F9D9
:10EF12000E00CD07F7CC03F6C9E500000000800023
:10EF220000000000000000000000000000000000DF
:10EF320000000000000000000000000000000000CF
:10EF420000000000000000000000000000000000BF
:10EF520000000000000000000000000000000000AF
:10EF620000000000000000000000000000C30000DC
:10EF7200C30000C30000C30000C30000C30000C3FD
:10EF82000000C30000C30000C30000C30000C300B0
:10EF920000C30000C30000C30000C30000C30000A0
:10EFA200C33BFBC34FFBC376FBC382FBC38CFBC3D8
:10EFB20099FBC399FBC399FBC39AFBC39FFBC3CDC8
:10EFC200FBC3D2FBC3E8FBC3F1FBC3F7FBC397FB55
:10EFD200C3D7FB73FA000000000000FCFB8DFAF6B9
:10EFE200FE7CFC73FA000000000000FCFB8DFA06B8
:10EFF200FF9BFC73FA000000000000FCFB8DFA1678
:10F00200FFBAFC73FA000000000000FCFB8DFA2638
:10F01200FFD9FC01070D1319050B111703090F1571
:10F0220002080E141A060C1218040A10161A00030B
:10F032000700F2003F00C0001000020000000000C4
:10F0420000000000FCFBBCFA36FFF8FC00000000E8
:10F0520000000000FCFBBCFA36FFF7FD8000040F45
:10F0620000F707FF03FFFF0000000036344B204388
:10F07200502F4D20566572732E20322E3220285A80
:10F082003830204342494F532056312E3220666F8A
:10F0920072205A383053494D2C20436F707972696F
:10F0A20067687420313938382D3230303720627930
:10F0B2002055646F204D756E6B290D0A00FFFFFF0E
:10F0C200FFFFFFFFFFFFFFFFFFFFFFFFFFFFFFFF4E
:10F0D2007EB7C84FCD8CFB23C330FBF331800021B8
:10F0E200CBFACD30FBAF320300320400C355FBF341
:10F0F200318000DB463EC33200002103FA220100C8
:10F102003205002106EC220600018000CDE8FB3A20
:10F1120004004FC300E4DB01E602CA80FB3EFFC9E4
:10F12200AFC9DB01E602CA82FBDB00C9DB01E601F3
:10F13200CA8CFB79D300C93EFFC9AF3221FBC9217A
:10F14200000079FE04DAB3FBFE08CAC0FBFE09CA5E
:10F15200C6FBC93220FB6F292929291133FA19C9A3
:10F16200219CFAC3C9FB21ACFA3220FBC9793221B6
:10F17200FBC9793222FBC97AB3C2E2FB69602CC0B7
:10F1820024C9EB096E2600C9793223FB783224FBAD
:10F19200C9DB52DB4EB7C9DB53DB4EC900000000AE
:10F1A200000000000000000000000000000000005D
:10F1B200000000000000000000000000000000004D
:10F1C200000000000000000000000000000000003D
:10F1D200000000000000000000000000000000002D
:10F4D200000000000000000000F3C38700FFFFFFF0
:10F4E200FFFFFFFFFFFFFFFFFFFFFFFFFFFFFFFF2A
:10F4F200FFFFFFFFFFFFFFFFFFFFFFFFFFFFFFFF1A
:10F50200FFFFFFFFFFFFFFFFFFFFFFFFFFFFFFFF09
:10F51200FFFFFFFFFFFFFFFFFFFFFFFFFFFFFFFFF9
:10F52200FFFFFFFFFFFFFFFFFFFFFFFFFFFFFFFFE9
:10F53200FFFFFFFFFFFFFFFFFFFFFFFFFFFFFFFFD9
:10F54200FFFFFFFFFFFFFFFFFFFFFFFFFFFFFFFFC9
:10F55200FFFFFFFFFFFF0D0A49504C3A00F33180D5
:10F56200003E7F3CEAC30001FFFFC5F1F5D17BE617
:10F5720022CA82027BE62AFE02CA98017BE60AFEC2
:10F582000ACAE5017BE62AFE22C22203010000C567
:10F59200F1F5D17BE62ACA330201FF00ED4C78B1C6
:10F5A200C2D3023EC0ED393F3E00ED39F23E00EDDE
:10F5B20039F63E7FED39FEED38FEE68020753EE0FD
:10F5C200ED39FEAFED39D2ED38D2E64020652600A6
:10F5D2003A4101843241017CE6030707672E013A72
:10F5E2004B0185324B017DE6038407070707ED399E
:10F5F200F23E80ED39DF3EFFED39DE212B01C322E1
:10F60200035A38533138302072756E6E696E672036
:10F612006D656D6F727920307761697420492F4F63
:10F6220020317761697420327820636C6F636B0DCF
:10F632000A0A00216301C3220348443634313830B8
:10F642002072756E6E696E67206D656D6F727920BE
:10F65200307761697420492F4F20317761697420B6
:10F66200302E357820636C6F636B0D0A0A00219E81
:10F6720001C3220369383038302072756E6E696EAC
:10F68200672028666C616720626974322069732082
:10F692005061726974792061667465722061726961
:10F6A20074686D617469632C20626974353331202A
:10F6B200697320303031290D0A0A0021EB01C3227F
:10F6C2000375504438303830412072756E6E696E61
:10F6D200672028666C616720626974322069732032
:10F6E2005061726974792061667465722061726911
:10F6F20074686D617469632C2062697433312069A6
:10F7020073203131290D0A0A00213902C32203690B
:10F71200383038352072756E6E696E672028666CD7
:10F722006167206269743220697320506172697462
:10F73200792061667465722061726974686D6174A2
:10F7420069632C20626974352C3120777269746187
:10F75200626C65290D0A0A00218802C322034D59F1
:10F7620043505538302072756E6E696E6720286678
:10F772006C6167206269743220697320506172691A
:10F7820074792061667465722061726974686D6152
:10F792007469632C20626974312C3520616C776145
:10F7A20079732030290D0A0A0021D902C322035A93
:10F7B20038302072756E6E696E672028666C6167DC
:10F7C2002062697432206973204F766572666C6FAD
:10F7D200772061667465722061726974686D617404
:10F7E20069632C206E6F204D4C542066756E6374D5
:10F7F200696F6E290D0A0A00EB218000CD3403EBFC
:10F80200CD3403DB47DB46C300FA7EB7C84FCD3F9A
:10F812000323C33403DB01E601CA3F0379D300C9E2
:10F82200534420436172643A207265616435313217
:10F832003A20435243206572726F72202825303479
:10F842007820213D20253034782C2072657472791D
:10F852003D2564290A0D00496D6167652066696C62
:10F86200652025732F445249564525632E44534B38
:10F872002069732061737369676E656420746F20F9
:10F8820064726976652025630A0D00534420436142
:10F8920072643A2020726561643531323A206164C3
:10F8A20064723D25386C642C206F6666733D256456
:10F8B2002C20636F756E743D25640A0D005344203D
:10F8C200436172643A2077726974653531323A2045
:10F8D200616464723D25386C642C206F6666733DEA
:10F8E20025642C20636F756E743D25640A0D0053E8
:10F8F2004420436172643A2077726974653531320B
:10F902003A206661696C656420746F2067657420B3
:10F91200746F6B656E2C2074696D656F75740A0D5A
:10F92200006469736B5F696F63746C3A2070647210
:10F93200763D25642C20636D643D25642C20627520
:10F9420066663D3078256C783A207265733D256491
:10F952000A0D00534420436172643A20777269743D
:10F96200653531323A2074696D656F75742C207279
:10F972006573706F6E736520697320253032780A63
:10F982000D00534420436172643A20434D4435389C
:10F992002C2052333D2530327820253032782025F4
:10F9A200303278202530327820253032780A0D0026
:10F9B20025733A204552524F523A20636C6F636B63
:10F9C200207370656564202564206973206E6F74EE
:10F9D20020737570706F727465640A0D0053442051
:10F9E200436172643A20434D44382C2052373D25FE
:10F9F2003032782025303278202530327820253078
:10FA0200327820253032780A0D006469736B5F69A1
:10FA12006F63746C3A20706472763D25642C2063A7
:10FA22006D643D25643A204E6F742068616E646C8B
:10FA320065642E0A0D006469736B5F726561643AD6
:10FA42002020706472763D25642C20736563746F88
:10FA5200723D256C642C20636F756E743D25640ABB
:10FA62000D006469736B5F77726974653A20706424
:10FA720072763D25642C20736563746F723D256C2C
:10FA8200642C20636F756E743D25640A0D00534427
:10FA920020436172643A20434353202843617264D5
:10FAA2002043617061636974792053746174757362
:10FAB2002920697320300A0D005344204361726487
:10FAC2003A2077726974653531323A2043524320C5
:10FAD2006572726F72202872657472793D2564298D
:10FAE2000A0D00534420436172643A2043617264F8
:10FAF20020706F77657220757020737461747573EE
:10FB02002062697320697320300A0D0055736520E5
:10FB12004E434F312D3E52413320252E3266204D29
:10FB2200487A20666F72203830383520636C6F63F4
:10FB32006B0A0D0072656164204D42522070617241
:10FB4200746974696F6E207461626C6520617420DF
:10FB5200736563746F7220300A0D00534420436151
:10FB620072643A2053444843206F722053445843EE
:10FB720020636172642064657465637465640A0D50
:10FB82000025733A204552524F523A206D6F6465F8
:10FB9200202564206973206E6F7420737570706FF6
:10FBA200727465640A0D005741524E494E473A201D
:10FBB200756E6B6E6F776E20492F4F207265616490
:10FBC20020282530325848290A0D00534420436129
:10FBD20072643A20696E697469616C697A65202E73
:10FBE2002E2E207375636365656465640A0D005388
:10FBF2004420436172643A20756E6578706563745F
:10FC0200656420726573706F6E736520253032787B
:10FC12000A0D00534420436172643A2041434D442B
:10FC2200343120726573706F6E736520697320259D
:10FC32003032780A0D00534420436172643A2077CF
:10FC4200726974653531323A20746F6B656E206962
:10FC52007320253032780A0D0053442043617264C8
:10FC62003A20434D44353920726573706F6E736567
:10FC720020697320253032780A0D004D656D6F7250
:10FC82007920303030303030202D202530366C58FD
:10FC920048202564204B42204F4B0D0A00706172B0
:10FCA200746974696F6E2073746172747320617405
:10FCB20020736563746F7220256C640A0D00665FA1
:10FCC200777269746528293A204552524F52207240
:10FCD20065733D25642C206E3D25640A0D00665F28
:10FCE2007265616428293A204552524F522072654A
:10FCF200733D25642C206E3D25640A0D00426F6120
:10FD020072643A2053424338303830202B20454D1C
:10FD1200555A38302D3537510A0D006661696C65C8
:10FD22006420746F20777269746520736563746FE1
:10FD32007220256C640A0D000A0D5344204361723F
:10FD4200643A20696E697469616C697A65202E2E45
:10FD52002E0A0D006661696C656420746F207265FD
:10FD6200616420736563746F7220256C640A0D00F0
:10FD72004661696C656420746F206D6F756E7420C6
:10FD8200534420436172642E0A0D005344204361A0
:10FD920072643A2041434D4434312C2052313D2586
:10FDA2003032780A0D004661696C656420746F20F8
:10FDB2006F70656E20534420436172642E2E0A0DCB
:10FDC200006661696C656420746F207265616420ED
:10FDD200736563746F7220300A0D005344204361CF
:10FDE20072643A206E6F74207375706F70727465EE
:10FDF200640A0D00534420436172643A20434D4427
:10FE0200302C2052313D253032780A0D002020203E
:10FE120020202020202020202020202020202020E0
:10FE2200202020200D007761697420666F72207097
:10FE3200726F6772616D6D6572202E2E2E0D0064D9
:10FE420069736B5F696E697469616C697A6528258B
:10FE520064292E2E2E0A0D004D656D6F72792030A9
:10FE62003030303030202D202530366C58480D008F
:10FE720025732535337320434845434B53554D3A3B
:10FE820020253032780A0D00706879736963616CDD
:10FE92002064726976657220213D20300A0D006669
:10FEA2005F6C7365656B28293A204552524F522088
:10FEB20025640A0D00665F73796E6328293A20452E
:10FEC20052524F522025640A0D006E6F2046415453
:10FED200333220706172746974696F6E0A0D005357
:10FEE2004420436172643A2074696D656F75740AC7
:10FEF2000D006E6F204D4252207369676E617475FA
:10FF020072650A0D00534420436172643A2072659F
:10FF12006164792E0A0D0025732069732073656C64
:10FF220065637465642E0A0D0073656C65637420E5
:10FF32004552524F522025640A0D006E6F207661A1
:10FF42006C696420766F6C756D650A0D00535049BB
:10FF52005F53445F636F6E666967757265004E6FCB
:10FF620020626F6F74206469736B2E0A0D00257313
:10FF72002F445249564525632E44534B002A2B2CBD
:10FF82003A3B3C3D3E5B5D7C223F7F004E6F2053FF
:10FF92004420436172643F0A0D0025643A202573B0
:10FFA2000A0D0053656C6563743A200043504D445A
:10FFB20049534B53004641543332202020002573CD
:10FFC2002530366C783A0043504D4449537E002523
:10FFD20073253034783A00286E756C6C2900202520
:10FFE200303278006661743A200053443A2000307F
:0DFFF2003A2F2F00696E66006E616E0000F0
:020000040001F9
:10000000000E0501816F4AC582F54BC583F54CC5CD
:1000100084F54DC585F585AF14D0010E816F82C57D
:1000200001F583C502F584C503F585C504F5CCEC5F
:10003000CEF001C582F502C583F503C584F504C57C
:1000400085F5000E876F000E866F13C771F514C714
:1000500072F58151D8B40DD08151D8A404D0000ECE
:10006000676F2B0E03D0000E676F2D0E666F66C58F
:1000700081F582C501F583C502F584C503F585C503
:1000800004F524ECC2F001040210D8A42DD005011F
:100090008151D8B409D081C52DF77107D8A0720756
:1000A000000E876F010E866F2D0E8625016E070EDE
:1000B0008721026EF60E036EFF0E046E81ECCEF009
:1000C0000501FD0E7127FF0E722348C512F549C5C3
:1000D00013F52D0E146E070E156E71C516F572C54B
:1000E00017F507ECCAF0120082C501F583C502F5C9
:1000F00084C503F585C504F524ECC2F00150021057
:10010000D8A41AD005018151D8B409D081C52DF7E2
:100110007107D8A07207000E876F010E866F2D0E33
:100120008625016E070E8721026EFA0E036EFF0E02
:10013000046E81ECCEF0C4D7000E0501886F000E6E
:10014000896F800E8A6F3F0E8B6F000E706F000EEE
:100150006F6F82C501F583C502F584C503F585C5BA
:1001600004F5000E056E000E066E000E076E000E02
:10017000086EBFECC8F0D8A00CD0BED073C588F50F
:1001800074C589F575C58AF576C58BF505016F4B84
:10019000702B88C501F589C502F58AC503F58BC5A5
:1001A00004F5000E056E000E066E200E076E410E61
:1001B000086E15ECA2F001C573F502C574F503C510
:1001C00075F504C576F505017351825D016E7451B4
:1001D0008359026E75518459036E76518559046EA8
:1001E000F6ECCCF004BECAD704500310021004E1B0
:1001F000020E015CD8A0C2D773C51AF574C51BF5F1
:1002000075C51CF576C51DF582C51EF583C51FF5A0
:1002100084C520F585C521F555ECC1F0D8A0AED731
:1002200005018851825D016E89518359026E8A51A0
:100230008459036E8B518559046EF6ECCCF004BEE4
:1002400008D004500310021043E1020E015CD8B044
:100250003FD088C582F589C583F58AC584F58BC5ED
:1002600085F54AD088C51BF589C51CF58AC51DF5DD
:100270008BC51EF5000E1F6E000E206E200E216E27
:10028000410E226E61ECA9F01BC588F51CC589F5ED
:100290001DC58AF51EC58BF505016F07D8A070072F
:1002A0008851825D016E89518359026E8A51845949
:1002B000036E8B518559046EF6ECCCF004BEC9D7A1
:1002C00004500310021004E1020E015CD8A0C1D753
:1002D00082C51AF583C51BF584C51CF585C51DF5BA
:1002E00088C51EF589C51FF58AC520F58BC521F582
:1002F00055ECC1F0D8A0B6D74EC569F569C56AF509
:10030000070116BF05D015C762F516C763F505D0FE
:10031000000E0501636F060E626F62C56DF563C561
:100320006EF505016D4B6E2B660E6A19D8A416D0BA
:1003300070AF0CD0000E886F000E896F800E8A6F30
:100340003F0E8B6F000E706F000E6F6F670E691996
:10035000D8B404D06F516D2770516E23000E806F9A
:10036000000E7F6F82C577F583C578F584C579F572
:1003700085C57AF588C573F589C574F58AC575F59F
:100380008BC576F57BD077C51BF578C51CF579C58F
:100390001DF57AC51EF588C51FF589C520F58AC5E6
:1003A00021F58BC522F561ECA9F01BC534F51CC500
:1003B00035F51DC536F51EC537F5B4ECB4F034C5BA
:1003C0007BF535C57CF536C57DF537C57EF57BC536
:1003D00001F57CC502F57DC503F57EC504F573EC1A
:1003E000C4F001C56BF502C56CF577C51AF578C583
:1003F0001BF579C51CF57AC51DF57BC505F57CC5D2
:1004000006F57DC507F57EC508F588C501F589C5E2
:1004100002F58AC503F58BC504F515ECA2F001C5FC
:100420001EF502C51FF503C520F504C521F564ECD2
:10043000CDF01AC577F51BC578F51CC579F51DC536
:100440007AF588C51BF589C51CF58AC51DF58BC5D0
:100450001EF5000E1F6E000E206E200E216E410E46
:10046000226E61ECA9F01BC588F51CC589F51DC578
:100470008AF51EC58BF505017F4B802B6D517F5D85
:100480008051800A4F6E6E51800A4F58D8A07BD79A
:1004900088C501F589C502F58AC503F58BC504F544
:1004A000000E056E000E066EA00E076E400E086E62
:1004B00015ECA2F001C57BF502C57CF503C57DF501
:1004C00004C57EF577C51AF578C51BF579C51CF509
:1004D0007AC51DF57BC51EF57CC51FF57DC520F5CC
:1004E0007EC521F555ECC1F0D8B003D0000E050152
:1004F00018D077C501F578C502F579C503F57AC539
:1005000004F57BC505F57CC506F57DC507F57EC5FB
:1005100008F5BFECC8F0D8A00BD005016BB108D02E
:10052000000E7B6F000E7C6F000E7D6F000E7E6FE5
:1005300082C501F583C502F584C503F585C504F5BB
:100540007BC505F57CC506F57DC507F57EC508F5B7
:10055000ABECA3F001C577F502C578F503C579F5D5
:1005600004C57AF577C51AF578C51BF579C51CF56C
:100570007AC51DF5000E056E000E066E200E076E84
:10058000410E086E73C501F574C502F575C503F516
:1005900076C504F515ECA2F001C51EF502C51FF5E0
:1005A00003C520F504C521F555ECC1F0D8A024D031
:1005B00005016F4B702B73C501F574C502F575C548
:1005C00003F576C504F5000E056E000E066E200ECE
:1005D000076E410E086E15ECA2F001C573F502C559
:1005E00074F503C575F504C576F5660E05016A193F
:1005F000D8A402D06D4B6E2B73C588F574C589F5F0
:1006000075C58AF576C58BF56FC560F570C561F562
:10061000000E0501686F000E656F000E646F000E1E
:10062000806F000E7F6FCDD077C51BF578C51CF5A8
:1006300079C51DF57AC51EF588C51FF589C520F554
:100640008AC521F58BC522F561ECA9F01BC534F5EF
:100650001CC535F51DC536F51EC537F5B4ECB4F02F
:1006600034C57BF535C57CF536C57DF537C57EF5DA
:100670007BC501F57CC502F57DC503F57EC504F596
:1006800073ECC4F002BE06D0025013E10A0E015C06
:10069000D8B00FD07BC501F57CC502F57DC503F54B
:1006A0007EC504F573ECC4F001C56BF502C56CF5AD
:1006B00005D0000E05016C6F090E6B6F05016851C6
:1006C000D8B461AF20D02D0E8625D96E070E8721B4
:1006D000DA6E2E0EDF6E864B872B7107D8A072075D
:1006E000010E686F10D02D0E8625D96E070E87215A
:1006F000DA6E300EDF6E864B872B7107D8A072073B
:100700006407D8A0650764516511D8A4ECD72D0EF5
:100710008625D96E070E8721DA6E6B51300FDF6E9A
:10072000864B872B7107D8A0720777C51AF578C555
:100730001BF579C51CF57AC51DF57BC505F57CC58E
:1007400006F57DC507F57EC508F588C501F589C59F
:1007500002F58AC503F58BC504F515ECA2F001C5B9
:100760001EF502C51FF503C520F504C521F564EC8F
:10077000CDF01AC577F51BC578F51CC579F51DC5F3
:100780007AF588C51BF589C51CF58AC51DF58BC58D
:100790001EF5000E1F6E000E206E200E216E410E03
:1007A000226E61ECA9F01BC588F51CC589F51DC535
:1007B0008AF51EC58BF505016007D8A061077F4B40
:1007C000802B6D517F5D8051800A4F6E6E51800A83
:1007D0004F58D8B008D087BF27D7875104E14B0EB8
:1007E000865DD8A021D7000E806F4F0E7F6F2D0E33
:1007F0007F25D96E070E8021DA6EDF6A2D0E4F6ECF
:10080000070E506E86514F5E8751505A7F514F24CC
:10081000016E80515020026E2D0E036E070E046E85
:1008200086C505F587C506F5A9ECCDF0050186510D
:100830007F5D866F87518059876F8151D8B402D010
:10084000010E01D0000E7F6F806B070127B30FD020
:1008500023D08607D8A087072D0E8625D96E070ED0
:100860008721DA6E300EDF6E7107D8A0720705019E
:1008700071517F5D8051800A4F6E7251800A4F58CE
:10088000D8B00AD086517F5D8051800A4F6E875163
:10089000800A4F58D8A0DDD705018151D8B40BD0BC
:1008A0008607D8A087072D0E8625D96E070E8721CB
:1008B000DA6E81C5DFF47F51715F8051725B48C58C
:1008C00012F549C513F52D0E8625146E070E8721E6
:1008D000156E71C516F572C517F507ECCAF0120052
:1008E00083C6D9F484C6DAF4DE6ADD6A81C601F50E
:1008F00082C602F552ECB9F001C592F602C593F634
:10090000060193AF02D00B0E1200D8909235D96E2B
:100910009335DA6E230ED926070EDA22DEC4ADF641
:10092000DDC4AEF6AD51AE11D8A402D00C0E12004B
:1009300083C6D9F484C6DAF4ADC6DEF4AEC6DDF4FF
:100940008591ADC6D9F4AEC6DAF4DF50D8B415D06F
:1009500020EE01F0AD51D926AE51DA22DF5071EC14
:10096000CFF00601A26FA2B108D08551D8A4A2A5EC
:1009700002D00A0E1200000E1200ADC6D9F4AEC6A7
:10098000DAF4DF6A20EE01F0AD51D926AE51DA2259
:10099000DF5002ECBDF00601A26FA2A102D0030E4F
:1009A00012008551D8B402D0A2B5E3D7ADC618F66F
:1009B000AEC619F6000E1B6F000E1A6F21ECB7F0D1
:1009C00018C6ABF619C6ACF6040EAB19AC11D8A418
:1009D00002D0010E1200AC5104E1020EAB5DD8A0B2
:1009E00002D00D0E120020EE2CF0AD51D926AE51E2
:1009F000DA22DEC49EF6DEC49FF6DEC4A0F6DEC4B4
:100A0000A1F63B0EAD25016E000EAE21026E2DEC5F
:100A1000CEF0020E02180110D8A4E3D7460E06014C
:100A2000AD25016E000EAE21026E2DECCEF001C59B
:100A3000A7F602C5A8F60601A96BAA6BA751A811D3
:100A4000A911AA11D8A410D0540EAD25016E000E24
:100A5000AE21026ED0ECC4F001C5A7F602C5A8F61F
:100A600003C5A9F604C5AAF620EE18F0AD51D926A3
:100A7000AE51DA22A7C6DEF4A8C6DEF4A9C6DEF4BB
:100A8000AAC6DEF420EE40F0AD51D926AE51DA22EE
:100A900010EE03F0AD51E126AE51E222DFC4E7F4DF
:100AA00020EE03F0AD51D926AE51DA22DE04D8B4DF
:100AB0000AD020EE03F0AD51D926AE51DA22020E53
:100AC000DE18D8A48ED7A7C601F5A8C602F5A9C618
:100AD00003F5AAC604F520EE03F0AD51D926AE51B8
:100AE000DA22DF50866F8651056E066A076A086A49
:100AF0002BECCCF001C5A7F602C5A8F603C5A9F6F4
:100B000004C5AAF6060120EE3DF0AD51D926AE513E
:100B1000DA22DF50866F876B20EE0AF0AD51D926BE
:100B2000AE51DA2286C6DEF487C6DDF420EE0AF086
:100B3000AD51D926AE51DA22DE50DE10D8B451D7ED
:100B400020EE0AF0AD51D926AE51DA22DEC486F687
:100B5000DDC487F620EE0AF0AD51D926AE51DA2277
:100B6000DEC488F6DDC489F6FF0E88258A6FFF0E85
:100B700089218B6F86518A158C6F87518B158D6FEC
:100B80008C518D11D8A42DD7410EAD25016E000ECC
:100B9000AE21026E2DECCEF0060120EE08F0AD5134
:100BA000D926AE51DA2201C5DEF402C5DDF420EE0D
:100BB00008F0AD51D926AE51DA22DF50866F0F0E04
:100BC0008617D8A40ED7430EAD25016E000EAE21B8
:100BD000026E2DECCEF001C59AF602C59BF6060119
:100BE0009C6B9D6B9A519B119C119D11D8A410D0A8
:100BF000500EAD25016E000EAE21026ED0ECC4F099
:100C000001C59AF602C59BF603C59CF604C59DF680
:100C10003E0EAD25016E000EAE21026E2DECCEF023
:100C200001C598F602C599F6060198519911D8B4F4
:100C3000D8D620EE08F0AD51D926AE51DA22DEC466
:100C400086F6DDC487F6040E886FD8908733863326
:100C5000882FFBD798518625896F995187218A6FF4
:100C60008B6BD8B08B2B8C6BA7518925946FA851B7
:100C70008A21956FA9518B21966FAA518C21976F6C
:100C800094519A5D95519B5996519C5997519D59F4
:100C9000D8A0A7D694519A5D016E95519B59026ECA
:100CA00096519C59036E97519D59046E20EE0AF09F
:100CB000AD51D926AE51DA22DEC486F6DDC487F600
:100CC00086C605F587C606F5076A086A86ECC9F088
:100CD00001C5A3F602C5A4F603C5A5F604C5A6F68C
:100CE000A351A411A511A611D8B47BD6000EAC6FE8
:100CF000000EAB6FF60EA35DFF0EA459FF0EA559B3
:100D00000F0EA659D8B004D0000EAC6F030EAB6F17
:100D1000A651A5110AE1F60EA35DFF0EA459D8B0A5
:100D200004D0000EAC6F020EAB6FA651A5110AE104
:100D3000F60EA35D0F0EA459D8B004D0000EAC6F10
:100D4000010EAB6FAB51AC11D8B44BD6020EA3253C
:100D5000866F000EA421876F000EA521886F000EFC
:100D6000A621896F20EE14F0AD51D926AE51DA22BA
:100D700086C6DEF487C6DEF488C6DEF489C6DEF4F5
:100D800020EE1CF0AD51D926AE51DA229EC6DEF41B
:100D90009FC6DEF4A0C6DEF4A1C6DEF498519E25FF
:100DA000866F99519F21876F000EA021886F000EDA
:100DB000A121896F20EE20F0AD51D926AE51DA2263
:100DC00086C6DEF487C6DEF488C6DEF489C6DEF4A5
:100DD00094519E25866F95519F21876F9651A02132
:100DE000886F9751A121896F20EE28F0AD51D92647
:100DF000AE51DA2286C6DEF487C6DEF488C6DEF49B
:100E000089C6DEF4030EAB19AC11D8A44CD05A0E2F
:100E1000AD25016E000EAE21026E2DECCEF001501C
:100E20000210D8A4DED5060120EE08F0AD51D92677
:100E3000AE51DA22DE50DE10D8A4D3D55C0EAD253B
:100E4000016E000EAE21026ED0ECC4F020EE24F054
:100E5000AD51D926AE51DA2201C5DEF402C5DEF469
:100E600003C5DEF404C5DEF420EE14F0AD51D9263E
:100E7000AE51DA22DEC486F6DEC487F6DEC488F61A
:100E8000DEC489F6020ED8908637873788378937CF
:100E9000E82EF9D786C68EF687C68FF688C690F6F6
:100EA00089C691F692D020EE08F0AD51D926AE5108
:100EB000DA22DE50DE10D8B494D520EE20F0AD5109
:100EC000D926AE51DA22DEC486F6DEC487F6DEC449
:100ED00088F6DEC489F6A75186258A6FA851872136
:100EE0008B6FA95188218C6FAA5189218D6F20EEBB
:100EF00024F0AD51D926AE51DA228AC6DEF48BC673
:100F0000DEF48CC6DEF48DC6DEF4020EAB19AC1135
:100F1000D8B444D020EE14F0AD51D926AE51DA2227
:100F2000DEC486F6DEC487F6DEC488F6DEC489F643
:100F3000010E86158A6F000E87158B6F000E8815BF
:100F40008C6F000E89158D6F20EE14F0AD51D926EF
:100F5000AE51DA22DEC401F5DEC402F5DEC403F5CB
:100F6000DEC404F5030E056E000E066E000E076E5D
:100F7000000E086E2BECCCF0D89004320332023213
:100F8000013206018A5101248E6F8B5102208F6F2E
:100F90008C510320906F8D51042016D020EE14F058
:100FA000AD51D926AE51DA22DEC486F6DEC487F60C
:100FB000DEC488F6DEC489F6D89086358E6F873514
:100FC0008F6F8835906F8935916FFF0E8E25866FF4
:100FD000010E8F21876F000E9021886F000E9121E6
:100FE000896F0A0E05D0D8908933883387338633CA
:100FF000E82EF9D720EE18F0AD51D926AE51DA22FD
:101000008651DE5C8751DE588851DE588951DE58A2
:10101000D8A0E7D420EE10F0AD51D926AE51DA2297
:10102000FF0EDE6EFF0EDE6EFF0EDE6EFF0EDD6E5D
:10103000DD52DD5210EE0CF0AD51E126AE51E22250
:10104000DEC4E6F4DEC4E6F4DEC4E6F4DEC4E6F4B0
:1010500020EE05F0AD51D926AE51DA22800EDF6EBA
:10106000030EAB19AC11D8A490D0600EAD25016E63
:10107000000EAE21026E2DECCEF001040210D8A4B9
:1010800084D0ADC600F6AEC601F6010E06019E255F
:10109000026F000E9F21036F000EA021046F000E4F
:1010A000A121056F15ECC4F00009D8A46ED006018B
:1010B00020EE05F0AD51D926AE51DA22DF6A2E0EB0
:1010C000AD25016E020EAE21026E2DECCEF0550E56
:1010D00001185BE1AA0E0218D8A457D0300E060101
:1010E000AD25016E000EAE21026ED0ECC4F0520EA2
:1010F00001184BE1520E021848E1610E031845E158
:10110000410E0418D8A441D0140EAD25016E020E74
:10111000AE21026ED0ECC4F0720E011836E1720EF0
:10112000021833E1410E031830E1610E0418D8A40F
:101130002CD0180EAD25016E020EAE21026ED0EC41
:10114000C4F020EE10F0AD51D926AE51DA2201C51F
:10115000DEF402C5DEF403C5DEF404C5DEF41C0EC5
:10116000AD25016E020EAE21026ED0ECC4F020EE71
:101170000CF0AD51D926AE51DA2201C5DEF402C51C
:10118000DEF403C5DEF404C5DEF4ADC6D9F4AEC6A4
:10119000DAF4ABC6DFF40701214B222B060120EE67
:1011A00006F0AD51D926AE51DA2221C7DEF422C7AE
:1011B000DDF4BBEF84F04AC661F64BC662F64EC65C
:1011C000D9F44FC6DAF4DE6ADD6A48C6A6F549C628
:1011D000A7F5710E0501A86F060EA96F54ECC3F0B8
:1011E0000601606F6051D8A40BD020EE0FF048517B
:1011F000D9264951DA22DF50606F6051D8B402D04D
:101200006051120020EE0EF04851D9264951DA22E1
:10121000DFB202D0070E120020EE10F04851D9269E
:101220004951DA2210EE10F04851E1264951E222EC
:10123000E6C454F6E6C455F6E6C456F6E6C457F6D8
:101240004C515425586F4D515521596F000E562160
:101250005A6F000E57215B6FDE50585DDE505959B2
:10126000DE505A59DE505B59D8B00ED020EE10F047
:101270004851D9264951DA22DEC450F6DDC451F670
:10128000501D4C6F511D4D6F4C514D11D8B405D3AD
:1012900020EE10F04851D9264951DA22FF0EDE1413
:1012A000506F010EDE14516F000EDE14526F000EEF
:1012B000DE14536F5051511152115311D8A449D219
:1012C00020EE10F04851D9264951DA22DEC450F6FA
:1012D000DEC451F6DEC452F6DEC453F60A0E05D063
:1012E000D8905333523351335033E82EF9D720EE90
:1012F0000AF07151D9267251DA22DEC454F6DDC4E7
:1013000055F6FF0E5425566FFF0E5521576F50515D
:101310005615636F51515715646F63516411D8A40A
:101320009CD020EE10F04851D9264951DA22DE50E7
:10133000DE10DE10DE10D8A423D020EE06F04851D7
:10134000D9264951DA22DEC467F6DEC468F6DEC467
:1013500069F6DEC46AF66751681169116A11D8A48A
:101360002BD048C62BF649C62CF6000E2D6F000E6A
:101370002E6F000E2F6F000E306F94EC98F014D08B
:1013800048C62BF649C62CF620EE14F04851D92653
:101390004951DA22DEC42DF6DEC42EF6DEC42FF665
:1013A000DEC430F694EC98F02BC667F62CC668F6CF
:1013B0002DC669F62EC66AF66751681169116A1161
:1013C000D8B46BD26705681169116A11D8A40AD024
:1013D00020EE0FF04851D9264951DA22020EDF6E75
:1013E000020E1200672911E168290FE169290DE158
:1013F0006A29D8A40AD020EE0FF04851D9264951C5
:10140000DA22010EDF6E010E120020EE14F04851B8
:10141000D9264951DA2267C6DEF468C6DEF469C609
:10142000DEF46AC6DEF420EE06F04851D9264951B2
:10143000DA22DE50DE10DE10DE10D8A40ED020EE50
:1014400006F04851D9264951DA2267C6DEF468C64B
:10145000DEF469C6DEF46AC6DEF420EE0EF0485112
:10146000D9264951DA22DFAE33D0220E48250501B4
:10147000E26F000E060149210501E36F060120EE2F
:1014800018F04851D9264951DA22DEC4E4F5DEC409
:10149000E5F5DEC4E6F5DEC4E7F5000E0501E96F0B
:1014A000010EE86F060120EE01F07151D92672514C
:1014B000DA22DF5004ECC9F00009D8A439D10601C2
:1014C00020EE0EF04851D9264951DA227F0EDF1660
:1014D00071C60DF572C60EF520EE14F04851D926EE
:1014E0004951DA22DEC40FF5DEC410F5DEC411F571
:1014F000DEC412F5B5ECC3F00DC56DF60EC56EF683
:101500000FC56FF610C570F606016D516E116F11A3
:101510007011D8B45DD763516D2764516E23000EEE
:101520006F23000E70234CC650F64DC651F6090EBF
:10153000526FD89051335033522FFBD750C665F6B7
:1015400051C666F665516611D8B4A7D065516325BA
:10155000506F66516421516F20EE0AF07151D92607
:101560007251DA225051DE5C5151DE58D8B010D0A1
:1015700020EE0AF07151D9267251DA22DEC450F6FB
:10158000DDC451F66351505D656F64515159666F0A
:1015900061C6E2F562C6E3F56DC6E4F56EC6E5F533
:1015A0006FC6E6F570C6E7F565C6E8F566C6E9F507
:1015B00020EE01F07151D9267251DA22DF5004EC8D
:1015C000C9F00009D8A4B4D006016551506F665126
:1015D000516F526B536B20EE18F04851D926495188
:1015E000DA22DEC454F6DEC455F6DEC456F6DEC496
:1015F00057F66D51545D586F6E515559596F6F5173
:1016000056595A6F705157595B6F5051585D51512F
:10161000595952515A5953515B59D8B02FD0220EB3
:101620004825016E000E4921026E20EE18F0485147
:10163000D9264951DA22DEC450F6DDC451F66D5187
:10164000505F6E51515B090ED89050375137E82EDC
:10165000FBD750516125036E51516221046E020E79
:10166000066E000E056EA9ECCDF0060120EE0EF020
:101670004851D9264951DA227F0EDF1665C650F649
:1016800066C651F6090ED89050375137E82EFBD771
:1016900050C66BF651C66CF6ADD020EE18F048512E
:1016A000D9264951DA226D51DE180AE16E51DE1851
:1016B00007E16F51DE1804E17051DE18D8B43AD05A
:1016C00020EE0AF04851D9264951DA2210EE10F0E6
:1016D0004851E1264951E222DE50E65CDE50E658F0
:1016E000DE50E658DE50E658D8B024D0220E482509
:1016F0000501E46F000E060149210501E56F6DC685
:10170000E6F56EC6E7F56FC6E8F570C6E9F5000EBA
:10171000EB6F010EEA6F060120EE01F07151D92640
:101720007251DA22DF5045ECC9F00009D8B402D07A
:10173000060161D6060120EE18F04851D92649511C
:10174000DA226DC6DEF46EC6DEF46FC6DEF470C655
:10175000DEF420EE10F04851D9264951DA22DEC4D9
:1017600050F6DDC451F6FF0E5015526F010E5115A3
:10177000536F525100086B6F5351D8A0E82A0208EA
:101780006C6F6B514C5D6C514D59D8B004D04CC648
:101790006BF64DC66CF620EE10F04851D926495133
:1017A000DA22DEC450F6DDC451F6FF0E5015526F3A
:1017B000010E5115536F52514825546F5351492111
:1017C000556F220E5425016E000E5521026E61C622
:1017D00003F562C604F56BC605F56CC606F5A9EC03
:1017E000CDF0060120EE0EF04851D9264951DA22FB
:1017F000000EDB8E6B514C5F6C514D5B4EC6D9F4C5
:101800004FC6DAF46B51DE266C51DD226B51612735
:101810006C51622320EE10F04851D9264951DA224A
:101820006B51DE266C51DE22000EDE22DE2220EE1F
:1018300010F04851D9264951DA2210EE0AF04851E9
:10184000E1264951E222DE50E65CDE50E658DE50E9
:10185000E658DE50E658D8A003D020EE0AF002D0B9
:1018600020EE10F04851D9264951DA22DEC45CF648
:10187000DEC45DF6DEC45EF6DEC45FF620EE0AF07E
:101880004851D9264951DA225CC6DEF45DC6DEF441
:101890005EC6DEF45FC6DEF4F7D420EE0EF04851EB
:1018A000D9264951DA22000EDB8C000E120048C600
:1018B000A6F549C6A7F56B0E0501A86F060EA96F20
:1018C00054ECC3F00601666F6651D8A408D020EE30
:1018D0000FF04851D9264951DA22DF50666F665120
:1018E000D8B402D06651120020EE0AF04851D92631
:1018F0004951DA224A51DE5C4B51DE584C51DE58D8
:101900004D51DE58D8B016D020EE0EF04851D926F1
:101910004951DA22DFB20ED020EE0AF04851D92622
:101920004951DA22DEC44AF6DEC44BF6DEC44CF678
:10193000DEC44DF620EE10F04851D9264951DA2286
:10194000DEC45EF6DEC45FF6DEC460F6DEC461F6B9
:10195000000E626F000E636F000E646F000E656F05
:1019600020EE10F04851D9264951DA2262C6DEF441
:1019700063C6DEF464C6DEF465C6DEF44A514B117C
:101980004C114D11D8B414D220EE0AF06B51D92667
:101990006C51DA22DEC44EF6DDC44FF64E51506F64
:1019A0004F51516F526B536B090ED89050375137CE
:1019B00052375337E82EF9D750C667F651C668F646
:1019C00052C669F653C66AF65E515F116011611125
:1019D000D8B495D0FF0E4A25016EFF0E4B21026E42
:1019E000FF0E4C21036EFF0E4D21046E67C605F5F8
:1019F00068C606F569C607F56AC608F586ECC9F03B
:101A000001C54EF602C54FF603C550F604C551F6A2
:101A1000FF0E5E25016EFF0E5F21026EFF0E60213C
:101A2000036EFF0E6121046E67C605F568C606F5F4
:101A300069C607F56AC608F586ECC9F001504E5D27
:101A400002504F590350505904505159D8A057D003
:101A5000FF0E67254E6FFF0E68214F6FFF0E692145
:101A6000506FFF0E6A21516F4E1D526F4F1D536F05
:101A7000501D546F511D556FFF0E5E25566FFF0EA2
:101A80005F21576FFF0E6021586FFF0E6121596F64
:101A9000525156155A6F535157155B6F5451581583
:101AA0005C6F555159155D6F20EE10F04851D926E5
:101AB0004951DA225AC6DEF45BC6DEF45CC6DEF4B7
:101AC0005DC6DEF420EE10F04851D9264951DA22E5
:101AD000DE504A5FDE504B5BDE504C5BDD504D5BB1
:101AE00020EE14F04851D9264951DA22DEC46DF6B1
:101AF000DEC46EF6DEC46FF6DEC470F669D020EE8A
:101B000006F04851D9264951DA22DEC46DF6DEC40A
:101B10006EF6DEC46FF6DEC470F66D516E116F1195
:101B20007011D8A447D048C62BF649C62CF6000E33
:101B30002D6F000E2E6F000E2F6F000E306F94EC85
:101B400098F02BC66DF62CC66EF62DC66FF62EC617
:101B500070F66D056E116F117011D8A40AD020EEC9
:101B60000FF04851D9264951DA22020EDF6E020EDB
:101B700012006D2911E16E290FE16F290DE1702925
:101B8000D8A40AD020EE0FF04851D9264951DA22C4
:101B9000010EDF6E010E120020EE06F04851D9262C
:101BA0004951DA226DC6DEF46EC6DEF46FC6DEF48D
:101BB00070C6DEF420EE14F04851D9264951DA22DD
:101BC0006DC6DEF46EC6DEF46FC6DEF470C6DEF4FB
:101BD0006D516E116F117011D8A48AD0E9D0675180
:101BE0004A5F68514B5B69514C5B6A514D5B20EE1B
:101BF00010F04851D9264951DA226751DE26685142
:101C0000DE226951DE226A51DE2220EE0EF04851BA
:101C1000D9264951DA22DFA225D048C62BF649C67B
:101C20002CF66DC62DF66EC62EF66FC62FF670C654
:101C300030F694EC98F02BC66DF62CC66EF62DC6D9
:101C40006FF62EC670F66D516E116F117011D8A41B
:101C50001FD0000E4A6F000E4B6F000E4C6F000E2F
:101C60004D6F50D048C60AF649C60BF66DC60CF645
:101C70006EC60DF66FC60EF670C60FF666ECA0F0D7
:101C80000AC66DF60BC66EF60CC66FF60DC670F67C
:101C900006016D2907E16E2905E16F2903E170292D
:101CA000D8B470D770516F116E1104E1020E6D5DE2
:101CB000D8A055D720EE14F06B51D9266C51DA22FA
:101CC000DE506D5DDE506E59DE506F59DE5070593A
:101CD000D8B045D720EE14F04851D9264951DA2220
:101CE0006DC6DEF46EC6DEF46FC6DEF470C6DEF4DA
:101CF0004A51675D4B5168594C5169594D516A5968
:101D0000D8A06DD720EE10F04851D9264951DA22DB
:101D10004A51DE264B51DE224C51DE224D51DE224D
:101D2000FF0E4A154E6F010E4B154F6F000E4C15EE
:101D3000506F000E4D15516F4E514F1150115111F2
:101D4000D8B436D06BC60DF56CC60EF56DC60FF562
:101D50006EC610F56FC611F570C612F5B5ECC3F07E
:101D60000DC562F60EC563F60FC564F610C565F6BF
:101D700006016251631164116511D8B4F0D64AC6E8
:101D80004EF64BC64FF64CC650F64DC651F60A0EEF
:101D900005D0D890513350334F334E33E82EF9D716
:101DA0004E5162274F516323505164235151652393
:101DB00020EE10F04851D9264951DA2210EE0AF0EF
:101DC0004851E1264951E222DE50E65CDE50E658F9
:101DD000DE50E658DE50E658D8B01CD020EE10F0A9
:101DE0004851D9264951DA2210EE0AF04851E1262D
:101DF0004951E222DEC4E6F4DEC4E6F4DEC4E6F4D1
:101E0000DEC4E6F420EE0EF04851D9264951DA221C
:101E1000000EDB8C20EE10F04851D9264951DA2211
:101E2000FF0EDE144E6F010EDE144F6F000EDE1437
:101E3000506F000EDE14516F4E514F115011511161
:101E4000D8B450D520EE18F04851D9264951DA229D
:101E50006251DE180AE16351DE1807E16451DE18B1
:101E600004E16551DE18D8B43DD520EE0EF048519E
:101E7000D9264951DA22DFAE33D0220E482505019A
:101E8000E26F000E060149210501E36F060120EE15
:101E900018F04851D9264951DA22DEC4E4F5DEC4EF
:101EA000E5F5DEC4E6F5DEC4E7F5000E0501E96FF1
:101EB000010EE86F060120EE01F06B51D9266C513E
:101EC000DA22DF5004ECC9F00009D8A42BD00601B7
:101ED00020EE0EF04851D9264951DA227F0EDF1646
:101EE000220E48250501E46F000E06014921050177
:101EF000E56F62C6E6F563C6E7F564C6E8F565C654
:101F0000E9F5000EEB6F010EEA6F060120EE01F01D
:101F10006B51D9266C51DA22DF5045ECC9F000092B
:101F2000D8B402D006012ED6060120EE18F0485192
:101F3000D9264951DA2262C6DEF463C6DEF464C6ED
:101F4000DEF465C6DEF4CED4AF51B011D8A402D011
:101F5000090E12003F0EB317B10E816F060E826F8D
:101F6000D40E836F060E846FB3C685F670EC84F0D2
:101F70000601D66FD651D8A4EAD2D4C6D7F6D5C6B4
:101F8000D8F6D70E6A6F060E6B6FB1C66CF6B2C686
:101F90006DF688ECB5F0D66FD651D8B4FEAF02D04E
:101FA000060ED66FB3C6B4F61C0EB417D8B4E9D07B
:101FB000D651D8B40DD0040ED619D8A407D0D70E58
:101FC0006E6F060E6F6FF0ECC2F0D66FB3870CD059
:101FD000DBC6B4F6110EB417D8B402D0070E03D086
:101FE000B3A502D0080ED66FD651D8B4B3A7D5D0BA
:101FF000D1ECCFF001C5C0F602C5C1F603C5C2F6EB
:1020000004C5C3F60E0EF125016E000EF221026E1C
:10201000C0C603F5C1C604F5C2C605F5C3C606F5BC
:1020200060ECCBF0160EF125016E000EF221026E6F
:10203000C0C603F5C1C604F5C2C605F5C3C606F59C
:1020400060ECCBF0D4C608F5D5C609F5F1C60AF5A3
:10205000F2C60BF543ECCAF008C5C4F609C5C5F6CF
:102060000AC5C6F60BC5C7F6060120EE0BF0F15106
:10207000D926F251DA22200EDF6ED4C605F5D5C678
:1020800006F5F1C607F5F2C608F5000E096E000E5A
:102090000A6E000E0B6E000E0C6EECECCDF01C0EFA
:1020A0000601F125016E000EF221026E000E036E94
:1020B000000E046E000E056E000E066E60ECCBF096
:1020C00020EE04F0D451D926D551DA22010EDF6E6C
:1020D000C451C511C611C711D8B45FD020EE2CF081
:1020E000D451D926D551DA22DEC4C8F6DEC4C9F6E9
:1020F000DEC4CAF6DEC4CBF6D70E2B6F060E2C6FED
:10210000C4C62DF6C5C62EF6C6C62FF6C7C630F60F
:10211000000E316F000E326F000E336F000E346F01
:10212000D9ECB3F0D66FD651D8A437D0D4C600F6C8
:10213000D5C601F6C8C602F6C9C603F6CAC604F675
:10214000CBC605F615ECC4F00601D66FFF0EC4250C
:10215000B46FFF0EC521B56FFF0EC621B66FFF0E1F
:10216000C721B76F20EE0CF0D451D926D551DA2211
:10217000B4C6DEF4B5C6DEF4B6C6DEF4B7C6DEF429
:102180000CD0D651D8A409D0DBA902D0040E04D0BB
:10219000B3B3DBA102D0070ED66FD651D8A420D09E
:1021A000B3B7B38D20EE2CF0D451D926D551DA2215
:1021B00010EE1CF0AF51E126B051E222DEC4E6F48D
:1021C000DEC4E6F4DEC4E6F4DEC4E6F420EE20F07D
:1021D000AF51D926B051DA22F1C6DEF4F2C6DDF4F1
:1021E000D651D8A4B4D1D4C608F5D5C609F5F1C6E0
:1021F0000AF5F2C60BF543ECCAF0060120EE06F034
:10220000AF51D926B051DA2208C5DEF409C5DEF493
:102210000AC5DEF40BC5DEF41C0EF125016E000EBE
:10222000F221026ED0ECC4F020EE0AF0AF51D926B4
:10223000B051DA2201C5DEF402C5DEF403C5DEF4D6
:1022400004C5DEF4AFC6D9F4B0C6DAF4D4C6DEF401
:10225000D5C6DDF420EE06F0D451D926D551DA22C8
:1022600010EE02F0AF51E126B051E222DEC4E6F4F6
:10227000DDC4E5F420EE0EF0AF51D926B051DA22DC
:10228000B3C6DFF420EE0FF0AF51D926B051DA22F9
:10229000DF6A20EE18F0AF51D926B051DA22DE6A9B
:1022A000DE6ADE6ADD6A20EE10F0AF51D926B05149
:1022B000DA22DE6ADE6ADE6ADD6A220EAF25016E90
:1022C000000EB021026E000E046E000E036E020EB0
:1022D000066E000E056EE3ECCEF0B3AB38D120EE07
:1022E0000AF0AF51D926B051DA22DE50DE10DE10EE
:1022F000DE10D8B42CD120EE0AF0AF51D926B0515F
:10230000DA2210EE10F0AF51E126B051E222DEC425
:10231000E6F4DEC4E6F4DEC4E6F4DEC4E6F420EE61
:102320000AF0D451D926D551DA22DEC4B4F6DDC480
:10233000B5F6B451B66FB551B76FB86BB96B090E3E
:10234000D890B637B737B837B937E82EF9D7B6C609
:10235000BCF6B7C6BDF6B8C6BEF6B9C6BFF620EE27
:1023600006F0AF51D926B051DA22DEC4D0F6DEC471
:10237000D1F6DEC4D2F6DEC4D3F620EE0AF0AF51B9
:10238000D926B051DA22DEC4CCF6DEC4CDF6DEC4E6
:10239000CEF6DEC4CFF634D0AFC60AF6B0C60BF622
:1023A000D0C60CF6D1C60DF6D2C60EF6D3C60FF6C1
:1023B00066ECA0F00AC6D0F60BC6D1F60CC6D2F673
:1023C0000DC6D3F60601D351D211D11106E1020E8A
:1023D000D05DD8B002D0020ED66FD02909E1D12944
:1023E00007E1D22905E1D329D8A402D0010ED66F86
:1023F000BC51CC5FBD51CD5BBE51CE5BBF51CF5BFD
:10240000D651D8A40AD0CC51BC5DCD51BD59CE51C6
:10241000BE59CF51BF59D8A0BFD720EE14F0AF514D
:10242000D926B051DA22D0C6DEF4D1C6DEF4D2C647
:10243000DEF4D3C6DEF4D651D8A489D0FF0ECC1575
:10244000B46F010ECD15B56F000ECE15B66F000E30
:10245000CF15B76FB451B511B611B711D8B477D045
:10246000D4C60DF5D5C60EF5D0C60FF5D1C610F5FC
:10247000D2C611F5D3C612F5B5ECC3F00DC5C8F63A
:102480000EC5C9F60FC5CAF610C5CBF60601C85170
:10249000C911CA11CB11D8A402D0020E57D0CCC694
:1024A000B4F6CDC6B5F6CEC6B6F6CFC6B7F60A0EAA
:1024B00005D0D890B733B633B533B433E82EF9D757
:1024C000C851B425B86FC951B521B96FCA51B621E9
:1024D000BA6FCB51B721BB6F20EE18F0AF51D926A0
:1024E000B051DA22B8C6DEF4B9C6DEF4BAC6DEF4FC
:1024F000BBC6DEF4220EAF250501E46F000E060117
:10250000B0210501E56F060120EE18F0AF51D92684
:10251000B051DA22DEC4E6F5DEC4E7F5DEC4E8F544
:10252000DEC4E9F5000E0501EB6F010EEA6F06014E
:1025300020EE01F0D451D926D551DA22DF5045ECF6
:10254000C9F00009D8B403D0010E0601D66F060108
:10255000D651D8B406D0AFC6D9F4B0C6DAF4DE6A24
:10256000DD6AD651120026C641F627C642F62AC6B3
:10257000D9F42BC6DAF4DE6ADD6A24C6A6F525C6D0
:10258000A7F54D0E0501A86F060EA96F54ECC3F018
:1025900006013C6F3C51D8A40BD020EE0FF0245123
:1025A000D9262551DA22DF503C6F3C51D8B402D0F5
:1025B0003C51120020EE0EF02451D9262551DA228A
:1025C000DFB002D0070E120020EE10F02451D92601
:1025D0002551DA22DEC42CF6DEC42DF6DEC42EF63A
:1025E000DEC42FF620EE0AF02451D9262551DA2236
:1025F000DEC430F6DEC431F6DEC432F6DEC433F6B5
:102600002C51305D386F2D513159396F2E5132595F
:102610003A6F2F5133593B6F28512C6F29512D6F31
:102620002E6B2F6B2C51385D2D5139592E513A5943
:102630002F513B59D8B004D038C628F639C629F6F0
:1026400028512911D8B481D220EE10F02451D92676
:102650002551DA22FF0EDE142C6F010EDE142D6FD1
:10266000000EDE142E6F000EDE142F6F2C512D1174
:102670002E112F11D8A402D220EE10F02451D92609
:102680002551DA22DEC42CF6DEC42DF6DEC42EF689
:10269000DEC42FF60A0E05D0D8902F332E332D33FB
:1026A0002C33E82EF9D720EE0AF04D51D9264E51A1
:1026B000DA22DEC430F6DDC431F6FF0E3025326F8B
:1026C000FF0E3121336F2C513215436F2D513315CD
:1026D000446F43514411D8A46BD020EE10F0245124
:1026E000D9262551DA22DE50DE10DE10DE10D8A405
:1026F0000FD020EE06F02451D9262551DA22DEC46F
:102700003DF6DEC43EF6DEC43FF6DEC440F61CD025
:1027100024C60AF625C60BF620EE14F02451D9265D
:102720002551DA22DEC40CF6DEC40DF6DEC40EF648
:10273000DEC40FF666ECA0F00AC63DF60BC63EF608
:102740000CC63FF60DC640F6060140513F113E1142
:102750000EE1020E3D5DD8B00AD020EE0FF02451FC
:10276000D9262551DA22020EDF6E020E12003D2913
:1027700011E13E290FE13F290DE14029D8A40AD0FB
:1027800020EE0FF02451D9262551DA22010EDF6EFA
:10279000010E120020EE14F02451D9262551DA2220
:1027A0003DC6DEF43EC6DEF43FC6DEF440C6DEF4CF
:1027B0004DC60DF54EC60EF520EE14F02451D92667
:1027C0002551DA22DEC40FF5DEC410F5DEC411F5A2
:1027D000DEC412F5B5ECC3F00DC549F60EC54AF6D8
:1027E0000FC54BF610C54CF6060149514A114B1165
:1027F0004C11D8B4B2D74351492744514A23000E53
:102800004B23000E4C2328C62CF629C62DF6090EA4
:102810002E6FD8902D332C332E2FFBD72CC645F698
:102820002DC646F645514611D8B4A7D0455143258B
:102830002C6F465144212D6F20EE0AF04D51D926C0
:102840004E51DA222C51DE5C2D51DE58D8B010D01A
:1028500020EE0AF04D51D9264E51DA22DEC42CF674
:10286000DDC42DF643512C5D456F44512D59466F03
:1028700041C6E4F542C6E5F549C6E6F54AC6E7F5C0
:102880004BC6E8F54CC6E9F545C6EAF546C6EBF594
:1028900020EE01F04D51D9264E51DA22DF5045ECA1
:1028A000C9F00009D8A4D9D0060120EE0EF02451B9
:1028B000D9262551DA22DFAE50D045512C6F465132
:1028C0002D6F2E6B2F6B20EE18F02451D926255139
:1028D000DA22DEC430F6DEC431F6DEC432F6DEC4FF
:1028E00033F64951305D346F4A513159356F4B5190
:1028F0003259366F4C513359376F2C51345D2D514D
:1029000035592E5136592F513759D8B026D020EE8F
:1029100018F02451D9262551DA22DEC42CF6DDC464
:102920002DF649512C5F4A512D5B090ED8902C375A
:102930002D37E82EFBD72C514125016E2D51422118
:10294000026E220E2425036E000E2521046E020E57
:10295000066E000E056EA9ECCDF045C62CF646C6F7
:102960002DF6090ED89006012C372D37E82EFAD710
:102970002CC647F62DC648F6C9D020EE18F02451D3
:10298000D9262551DA224951DE180AE14A51DE18CA
:1029900007E14B51DE1804E14C51DE18D8B45FD08A
:1029A00020EE0EF02451D9262551DA22DFAE33D0A5
:1029B000220E24250501E26F000E060125210501E6
:1029C000E36F060120EE18F02451D9262551DA22B2
:1029D000DEC4E4F5DEC4E5F5DEC4E6F5DEC4E7F505
:1029E000000E0501E96F010EE86F060120EE01F00F
:1029F0004D51D9264E51DA22DF5004ECC9F00009BE
:102A0000D8A42BD0060120EE0EF02451D926255152
:102A1000DA227F0EDF16220E24250501E46F000E58
:102A2000060125210501E56F49C6E6F54AC6E7F529
:102A30004BC6E8F54CC6E9F5000EEB6F010EEA6FE8
:102A4000060120EE01F04D51D9264E51DA22DF5019
:102A500045ECC9F00009D8B402D0060191D60601B0
:102A600020EE18F02451D9262551DA2249C6DEF489
:102A70004AC6DEF44BC6DEF44CC6DEF420EE10F09F
:102A80002451D9262551DA22DEC42CF6DDC42DF6D8
:102A9000FF0E2C152E6F010E2D152F6F2E510008D5
:102AA000476F2F51D8A0E82A0208486F4751285D88
:102AB00048512959D8B004D028C647F629C648F647
:102AC00041C601F542C602F520EE10F02451D92688
:102AD0002551DA22DEC42CF6DDC42DF6FF0E2C15AE
:102AE0002E6F010E2D152F6F2E512425306F2F5173
:102AF0002521316F220E3025036E000E3121046E28
:102B000047C605F548C606F5A9ECCDF006014751C4
:102B1000285F4851295B2AC6D9F42BC6DAF44751FD
:102B2000DE264851DD22475141274851422320EEFD
:102B300010F02451D9262551DA224751DE2648517A
:102B4000DE22000EDE22DE227BD5000E120053C5EF
:102B5000D9F454C5DAF4DEC4F6F4DDC4F7F4000E9B
:102B6000F86E0800F550250AD8A4C9D253C5D9F487
:102B700054C5DAF4DE2A000EDD22000E0701146FC0
:102B8000000E136F13C727F715691669000E0501AC
:102B90000BD00701278353C5D9F454C5DAF4DE2AD4
:102BA000000EDD2213D0010E8C6F10D053C5D9F466
:102BB00054C5DAF4DEC4F6F4DDC4F7F4000EF86EA2
:102BC0000800F550300AD8B4E4D7EDD705018C5190
:102BD000D8B4ECD753C507F554C508F555C509F564
:102BE00056C50AF52CECC5F007C513F708C514F750
:102BF000070114AF05D02781136D141FD8B0142B13
:102C000053C5D9F454C5DAF4DEC4F6F4DDC4F7F4E0
:102C1000000EF86E0800F5502E0AD8A415D053C542
:102C2000D9F454C5DAF4DE2A000EDD2253C507F5C7
:102C300054C508F555C509F556C50AF52CECC5F07F
:102C400007C515F708C516F753C5D9F454C5DAF406
:102C5000DEC4F6F4DDC4F7F4000EF86E0800F5509B
:102C6000630AD8A423D053C5D9F454C5DAF4DE2AB4
:102C7000000EDD2255C5D9F456C5DAF4DFC457F588
:102C8000020EDE26DFC458F5000EDD2257C5D9F44A
:102C900058C5DAF4DF500501916F51C50BF552C5E7
:102CA0000CF591C50DF576ECC8F0120053C5D9F4BA
:102CB00054C5DAF4DEC492F5DDC493F592C5F6F49A
:102CC00093C5F7F4000EF86E0800F5C491F508D02E
:102CD000924B932B17D0690E01D0000E916F12D03A
:102CE00005019151580AD8B4F6D73C0AD8B4F3D7A5
:102CF0000D0AD8B4F0D7050AD8B4EAD7140AD8B464
:102D0000EAD7EBD792C5F6F493C5F7F4000EF86E48
:102D10000800F550640AD8B43FD092C5F6F493C5C4
:102D2000F7F4000EF86E0800F550690AD8B434D0F4
:102D300057D055C5D9F456C5DAF4DFC457F5020E9D
:102D4000DE26DFC458F5000EDD2257C5D9F458C57C
:102D5000DAF4DEC48DF5DDC48EF5000E8EBFFF0EF5
:102D60008F6F906F20D055C5D9F456C5DAF4DFC403
:102D700057F5040EDE26DFC458F5000EDD2257C5D8
:102D8000D9F458C5DAF4DEC48DF5DEC48EF5DEC4A0
:102D90008FF5DEC490F507D09151690AD8B4C9D730
:102DA000050AD8B4E0D7010E9225576E000E932184
:102DB000586E53C5D9F454C5DAF457C5DEF458C576
:102DC000DDF451C51BF552C51CF58DC51DF58EC52D
:102DD0001EF58FC51FF590C520F59FECB8F01200C9
:102DE00092C5F6F493C5F7F4000EF86E0800F5509E
:102DF000780AD8B440D092C5F6F493C5F7F4000E23
:102E0000F86E0800F550580AD8B435D070D055C5C2
:102E1000D9F456C5DAF4DFC457F5020EDE26DFC456
:102E200058F5000EDD2257C5D9F458C5DAF4DEC4D2
:102E300059F5DDC45AF559C58DF55AC58EF58F6B18
:102E4000906B20D055C5D9F456C5DAF4DFC457F5D8
:102E5000040EDE26DFC458F5000EDD2257C5D9F476
:102E600058C5DAF4DEC48DF5DEC48EF5DEC48FF508
:102E7000DEC490F507D09151690AD8B4C8D7050AC5
:102E8000D8B4E0D7010E9225576E000E9321586EEC
:102E900053C5D9F454C5DAF457C5DEF458C5DDF48A
:102EA00018D051C51BF552C51CF58DC51DF58EC535
:102EB0001EF58FC51FF590C520F592C5F6F493C594
:102EC000F7F4000EF86E0800F5C421F5BCECBEF076
:102ED000120092C5F6F493C5F7F4000EF86E0800E0
:102EE000F550580AD8B4DDD7200AD8B4DAD7000E86
:102EF0008C6F53C5D9F454C5DAF4DEC4F6F4DDC4DE
:102F0000F7F4000EF86E0800F550730AD8A40AD042
:102F100053C5D9F454C5DAF4DE2A000EDD22010EC1
:102F20008C6F44D053C5D9F454C5DAF4DEC4F6F43A
:102F3000DDC4F7F4000EF86E0800F5506C0AD8A452
:102F400035D053C5D9F454C5DAF4DEC457F5DDC421
:102F500058F5010E5726000E582257C5F6F458C5ED
:102F6000F7F4000EF86E0800F5506C0AD8A41ED0D5
:102F700053C5D9F454C5DAF4DEC457F5DDC458F5A9
:102F8000020E5726000E582257C5F6F458C5F7F41E
:102F9000000EF86E0800F550730AD8A407D0030E8F
:102FA00053C5D9F454C5DAF4DE26B7D78C51D8B45A
:102FB0001BD051C50BF552C50CF555C5D9F456C5F6
:102FC000DAF4DFC457F5020EDE26DFC458F5000E32
:102FD000DD2257C5D9F458C5DAF4DEC40DF5DDC4D9
:102FE0000EF596ECBAF0120053C5D9F454C5DAF4D4
:102FF000DEC492F5DDC493F592C5F6F493C5F7F4FB
:10300000000EF86E0800F5C491F508D0924B932B92
:1030100010D06C0E01D0000E916F0BD091514C0A64
:10302000D8B4F4D72A0AD8B4F4D70A0AD8B4EED759
:10303000F2D792C5F6F493C5F7F4000EF86E0800C7
:10304000F550660AD8B41AD052D055C5D9F456C531
:10305000DAF4DFC457F5040EDE26DFC458F5000E9F
:10306000DD2257C5D9F458C5DAF4DEC48DF5DEC4C7
:103070008EF5DEC48FF5DEC490F507D091514C0A71
:10308000D8B4E3D7200AD8B4E0D7010E9225576E02
:10309000000E9321586E53C5D9F454C5DAF457C5C0
:1030A000DEF458C5DDF418D051C548F552C549F5D0
:1030B0008DC54AF58EC54BF58FC54CF590C54DF5C0
:1030C00092C5F6F493C5F7F4000EF86E0800F5C447
:1030D0004EF500EC80F0120092C5F6F493C5F7F4BB
:1030E000000EF86E0800F550660AD8B4DDD753C557
:1030F000D9F454C5DAF4DE2A000EDD22120053C5DD
:10310000D9F454C5DAF4DEC4F6F4DDC4F7F4000EE5
:10311000F86E0800F550026E036A51C504F552C5F9
:1031200005F58AECC7F0E3D72BC6D9F42CC6DAF440
:10313000DEC442F6DDC443F62D512E112F1130119D
:10314000D8A42DD020EE0CF04251D9264351DA22DA
:10315000DEC43AF6DEC43BF6DEC43CF6DEC43DF621
:103160003A513B113C113D11D8B410D020EE14F06F
:103170004251D9264351DA22DE503A5DDE503B59A6
:10318000DE503C59DE503D59D8A05BD0010E3A6F5D
:10319000000E3B6F000E3C6F000E3D6F52D02BC6F1
:1031A0000AF62CC60BF62DC60CF62EC60DF62FC64B
:1031B0000EF630C60FF666ECA0F00AC644F60BC653
:1031C00045F60CC646F60DC647F6060147514611B0
:1031D00045110DE1020E445DD8B009D0010E2B6FF0
:1031E000000E2C6F000E2D6F000E2E6F1200442962
:1031F00010E145290EE146290CE14729D8A409D060
:1032000044C62BF645C62CF646C62DF647C62EF606
:10321000120020EE14F04251D9264351DA22DE503A
:10322000445DDE504559DE504659DE504759D8A01E
:10323000E7D72DC63AF62EC63BF62FC63CF630C66B
:103240003DF620EE10F04251D9264351DA22DE50ED
:10325000DE10DE10DE10D8A409D0000E2B6F000E99
:103260002C6F000E2D6F000E2E6F1200000E3E6FA1
:10327000000E3F6F000E406F000E416F2D513A1946
:1032800009E12E513B1906E12F513C1903E1305160
:103290003D19D8A486D0010E3A253E6F000E3B2181
:1032A0003F6F000E3C21406F000E3D21416F20EE2C
:1032B00014F04251D9264351DA22DE503E5DDE50F1
:1032C0003F59DE504059DE504159D8A008D0020E77
:1032D0003E6F000E3F6F000E406F000E416F2BC619
:1032E0000AF62CC60BF63EC60CF63FC60DF640C6D7
:1032F0000EF641C60FF666ECA0F00AC644F60BC601
:1033000045F60CC646F60DC647F6060144054511BE
:1033100046114711D8B474D7442907E1452905E17E
:10332000462903E14729D8B46BD7445145114611CA
:103330004711D8B436D020EE0CF04251D926435173
:10334000DA22DEC444F6DEC445F6DEC446F6DEC448
:1033500047F647514611451104E1020E445DD8A0DD
:1033600018D020EE14F04251D9264351DA22DE5013
:10337000445DDE504559DE504659DE504759D8B0BD
:1033800008D044C63AF645C63BF646C63CF647C6A4
:103390003DF6000E3E6F000E3F6F000E406F000EB8
:1033A000416F3E513F1140114111D8A468D03AC637
:1033B0003EF63BC63FF63CC640F63DC641F6010E22
:1033C0003E27000E3F234023412320EE14F04251BC
:1033D000D9264351DA22DE503E5DDE503F59DE50A1
:1033E0004059DE504159D8A010D0020E3E6F000E59
:1033F0003F6F000E406F000E416F3D513C113B117D
:1034000004E1020E3A5DD8A028D72BC60AF62CC6D6
:103410000BF63EC60CF63FC60DF640C60EF641C68C
:103420000FF666ECA0F00AC644F60BC645F60CC6CD
:1034300046F60DC647F6060144514511461147119F
:10344000D8B41DD04405451146114711D8B4D8D67B
:10345000442907E1452905E1462903E14729D8B474
:10346000CFD63A513E19ABE13B513F19A8E13C514F
:103470004019A5E13D514119D8B4EFD6A0D742C6B5
:103480000AF643C60BF63EC60CF63FC60DF640C61E
:103490000EF641C60FF6FF0E106FFF0E116FFF0EF6
:1034A000126FFF0E136FD6EC9AF0396F3951D8A412
:1034B0001DD02D512E112F113011D8B417D042C666
:1034C0000AF643C60BF62DC60CF62EC60DF62FC611
:1034D0000EF630C60FF63EC610F63FC611F640C6D1
:1034E00012F641C613F6D6EC9AF0396F3951D8A4CA
:1034F00044D020EE0CF04251D9264351DA223EC688
:10350000DEF43FC6DEF440C6DEF441C6DEF420EE53
:1035100010F04251D9264351DA2210EE14F04251F4
:10352000E1264351E222FE0EE624356FFF0EE6202F
:10353000366FFF0EE620376FFF0EE620386FDE5045
:10354000355DDE503659DE503759DE503859D8A037
:103550000BD020EE10F04251D9264351DA22DE067C
:10356000000EDE5ADE5ADE5A20EE05F04251D92610
:103570004351DA22000EDB8010D03905D8B409D0CF
:10358000010E3E6F000E3F6F000E406F000E416F48
:1035900004D03E693F69406941693EC62BF63FC68B
:1035A0002CF640C62DF641C62EF61200020E2A6FEA
:1035B0000F510E110D1104E1020E0C5DD8A0F4D1D3
:1035C00020EE14F00A51D9260B51DA22DE500C5DA0
:1035D000DE500D59DE500E59DE500F59D8A0D6D10D
:1035E000E3D10CC628F60DC629F6D8902931156FFF
:1035F0002831146F14512827155129230AC600F6C3
:103600000BC601F620EE20F00A51D9260B51DA2222
:10361000DEC414F6DEC415F6DEC416F6DEC417F6F4
