:04000000FEEFFFF020
:10D9700000819FE0FC407E80FC00001000C35CE75B
:10D98000C358E77F00436F7079726967687420310C
:10D9900039373920286329206279204469676974FE
:10D9A000616C2052657365617263682020202020BD
:10D9B0002000000000000000000000000000000047
:10D9C0000000000000000000000000000000000057
:10D9D0000000000000000000000000000000000047
:10D9E0000000000000000000000000000000000037
:10D9F0000000000000000000000000000000000027
:10DA0000000000000008E400005F0E02C30500C52E
:10DA1000CD8CE4C1C93E0DCD92E43E0AC392E43EF2
:10DA200020C392E4C5CD98E4E17EB7C823E5CD8C50
:10DA3000E4E1C3ACE40E0DC305005F0E0EC30500A8
:10DA4000CD050032EEEB3CC90E0FC3C3E4AF32ED9F
:10DA5000EB11CDEBC3CBE40E10C3C3E40E11C3C373
:10DA6000E40E12C3C3E411CDEBC3DFE40E13C30510
:10DA700000CD0500B7C90E14C3F4E411CDEBC3F912
:10DA8000E40E15C3F4E40E16C3C3E40E17C3050079
:10DA90001EFF0E20C30500CD13E58787878721EF82
:10DAA000EBB6320400C93AEFEB320400C9FE61D88C
:10DAB000FE7BD0E65FC93AABEBB7CA96E53AEFEB2F
:10DAC000B73E00C4BDE411ACEBCDCBE4CA96E53A59
:10DAD000BBEB3D32CCEB11ACEBCDF9E4C296E511DA
:10DAE00007E42180000680CD42E821BAEB3600230E
:10DAF0003511ACEBCDDAE4CA96E53AEFEBB7C4BD2D
:10DB0000E42108E4CDACE4CDC2E5CAA7E5CDDDE56E
:10DB1000C382E7CDDDE5CD1AE50E0A1106E4CD0599
:10DB200000CD29E52107E4462378B7CABAE57ECDC2
:10DB300030E57705C3ABE5772108E42288E4C90E18
:10DB40000BCD0500B7C80E01CD0500B7C90E19C32E
:10DB500005001180000E1AC3050021ABEB7EB7C88B
:10DB60003600AFCDBDE411ACEBCDEFE43AEFEBC343
:10DB7000BDE41128E72100EC06061ABEC2CFE71368
:10DB80002305C2FDE5C9CD98E42A8AE47EFE20CAB9
:10DB900022E6B7CA22E6E5CD8CE4E123C30FE63ED8
:10DBA0003FCD8CE4CD98E4CDDDE5C382E71AB7C85C
:10DBB000FE20DA09E6C8FE3DC8FE5FC8FE2EC8FE9C
:10DBC0003AC8FE3BC8FE3CC8FE3EC8C91AB7C8FEEC
:10DBD00020C013C34FE6856FD024C93E0021CDEB92
:10DBE000CD59E6E5E5AF32F0EB2A88E4EBCD4FE620
:10DBF000EB228AE4EBE11AB7CA89E6DE4047131A42
:10DC0000FE3ACA90E61B3AEFEB77C396E67832F01D
:10DC1000EB70130608CD30E6CAB9E623FE2AC2A986
:10DC2000E6363FC3ABE6771305C298E6CD30E6CAC9
:10DC3000C0E613C3AFE623362005C2B9E60603FEED
:10DC40002EC2E9E613CD30E6CAE9E623FE2AC2D9A0
:10DC5000E6363FC3DBE6771305C2C8E6CD30E6CA39
:10DC6000F0E613C3DFE623362005C2E9E606032308
:10DC7000360005C2F2E6EB2288E4E1010B00237EC8
:10DC8000FE3FC209E7040DC201E778B7C944495213
:10DC90002045524120545950455341564552454E16
:10DCA00020555345520016000000002110E70E00D9
:10DCB00079FE06D011CEEB06041ABEC24FE713233D
:10DCC00005C23CE71AFE20C254E779C92305C24FBA
:10DCD000E70CC333E7AF3207E431ABEBC5791F1F65
:10DCE0001F1FE60F5FCD15E5CDB8E432ABEBC17970
:10DCF000E60F32EFEBCDBDE43A07E4B7C298E73167
:10DD0000ABEBCD98E4CDD0E5C641CD8CE43E3ECD25
:10DD10008CE4CD39E5118000CDD8E5CDD0E532EFEA
:10DD2000EBCD5EE6C409E63AF0EBB7C2A5EACD2E2C
:10DD3000E721C1E75F160019197E23666FE977E8CE
:10DD40001FE95DE9ADE910EA8EEAA5EA21F3762242
:10DD500000E42100E4E901DFE7C3A7E45265616460
:10DD6000206572726F720001F0E7C3A7E44E6F2066
:10DD700066696C6500CD5EE63AF0EBB7C209E62154
:10DD8000CEEB010B007EFE20CA33E823D630FE0A1C
:10DD9000D209E65778E6E0C209E67807070780DA95
:10DDA00009E680DA09E682DA09E6470DC208E8C921
:10DDB0007EFE20C209E6230DC233E878C906037E41
:10DDC00012231305C242E8C921800081CD59E67EA5
:10DDD000C9AF32CDEB3AF0EBB7C83D21EFEBBEC88F
:10DDE000C3BDE43AF0EBB7C83D21EFEBBEC83AEF54
:10DDF000EBC3BDE4CD5EE6CD54E821CEEB7EFE2044
:10DE0000C28FE8060B363F2305C288E81E00D5CD39
:10DE1000E9E4CCEAE7CA1BE93AEEEB0F0F0FE66044
:10DE20004F3E0ACD4BE817DA0FE9D17B1CD5E6034C
:10DE3000F5C2CCE8CD98E4C5CDD0E5C1C641CD92C0
:10DE4000E43E3ACD92E4C3D4E8CDA2E43E3ACD928A
:10DE5000E4CDA2E4060178CD4BE8E67FFE20C2F9CE
:10DE6000E8F1F5FE03C2F7E83E09CD4BE8E67FFE98
:10DE700020CA0EE93E20CD92E40478FE0CD20EE9D1
:10DE8000FE09C2D9E8CDA2E4C3D9E8F1CDC2E5C20A
:10DE90001BE9CDE4E4C398E8D1C386EBCD5EE6FE92
:10DEA0000BC242E90152E9CDA7E4CD39E52107E4EF
:10DEB00035C282E7237EFE59C282E7232288E4CD61
:10DEC00054E811CDEBCDEFE43CCCEAE7C386EB415F
:10DED0006C6C2028792F6E293F00CD5EE6C209E6E2
:10DEE000CD54E8CDD0E4CAA7E9CD98E421F1EB36D2
:10DEF000FF21F1EB7EFE80DA87E9E5CDFEE4E1C2A9
:10DF0000A0E9AF7734218000CD59E67EFE1ACA869B
:10DF1000EBCD8CE4CDC2E5C286EBC374E93DCA8685
:10DF2000EBCDD9E7CD66E8C309E6CDF8E7F5CD5EE0
:10DF3000E6C209E6CD54E811CDEBD5CDEFE4D1CD65
:10DF400009E5CAFBE9AF32EDEBF16F2600291100BC
:10DF5000017CB5CAF1E92BE521800019E5CDD8E5B2
:10DF600011CDEBCD04E5D1E1C2FBE9C3D4E911CD7C
:10DF7000EBCDDAE43CC201EA0107EACDA7E4CDD556
:10DF8000E5C386EB4E6F20737061636500CD5EE67E
:10DF9000C209E63AF0EBF5CD54E8CDE9E4C279EAFE
:10DFA00021CDEB11DDEB0610CD42E82A88E4EBCD64
:10DFB0004FE6FE3DCA3FEAFE5FC273EAEB232288CA
:10DFC000E4CD5EE6C273EAF14721F0EB7EB7CA59B1
:10DFD000EAB870C273EA70AF32CDEBCDE9E4CA6D36
:10DFE000EA11CDEBCD0EE5C386EBCDEAE7C386EBB8
:10DFF000CD66E8C309E60182EACDA7E4C386EB4615
:10E00000696C652065786973747300CDF8E7FE105C
:10E01000D209E65F3ACEEBFE20CA09E6CD15E5C38C
:10E0200089EBCDF5E53ACEEBFE20C2C4EA3AF0EB3F
:10E03000B7CA89EB3D32EFEBCD29E5CDBDE4C3890D
:10E04000EB11D6EB1AFE20C209E6D5CD54E8D1215A
:10E0500083EBCD40E8CDD0E4CA6BEB210001E5EBCA
:10E06000CDD8E511CDEBCDF9E4C201EBE111800093
:10E07000191100E47D937C9AD271EBC3E1EAE13D92
:10E08000C271EBCD66E8CD5EE621F0EBE57E32CDE8
:10E09000EB3E10CD60E6E17E32DDEBAF32EDEB1111
:10E0A0005C0021CDEB0621CD42E82108E47EB7CA11
:10E0B0003EEBFE20CA3EEB23C330EB06001181008D
:10E0C0007E12B7CA4FEB042313C343EB78328000B0
:10E0D000CD98E4CDD5E5CD1AE5CD000131ABEBCD42
:10E0E00029E5CDBDE4C382E7CD66E8C309E6017A40
:10E0F000EBCDA7E4C386EB426164206C6F616400E2
:10E10000434F4DCD66E8CD5EE63ACEEBD62021F00A
:10E11000EBB6C209E6C382E7000000000000000081
:10E120000000000000000000000024242420202023
:10E1300020205355420000000000000000000000B5
:10E14000000000000000000000000020202020202F
:10E15000202020202020000000000020202020205F
:10E1600020202020202000000000000000000000EF
:10E170000000000000000000000000000000160089
:10E18000000000C311EC99ECA5ECABECB1ECEB2278
:10E1900043EFEB7B32D6F92100002245EF39220F05
:10E1A000EF3141EFAF32E0F932DEF92174F9E57970
:10E1B000FE29D04B2147EC5F160019195E23562A21
:10E1C00043EFEBE903FAC8EE90EDCEEE12FA0FFA48
:10E1D000D4EEEDEEF3EEF8EEE1EDFEEE7EF883F830
:10E1E00045F89CF8A5F8ABF8C8F8D7F8E0F8E6F8D9
:10E1F000ECF8F5F8FEF804F90AF911F92CF117F921
:10E200001DF926F92DF941F947F94DF90EF853F9A1
:10E2100004EF04EF9BF921CAECCDE5ECFE03CA0044
:10E2200000C921D5ECC3B4EC21E1ECC3B4EC21DC92
:10E23000ECCDE5ECC3000042646F732045727220A0
:10E240004F6E20203A202442616420536563746F2E
:10E25000722453656C6563742446696C6520522F83
:10E260004F24E5CDC9ED3A42EFC64132C6EC01BAC2
:10E27000ECCDD3EDC1CDD3ED210EEF7E3600B7C08E
:10E28000C309FACDFBECCD14EDD8F54FCD90EDF1EF
:10E29000C9FE0DC8FE0AC8FE09C8FE08C8FE20C98E
:10E2A0003A0EEFB7C245EDCD06FAE601C8CD09FA40
:10E2B000FE13C242EDCD09FAFE03CA0000AFC93217
:10E2C0000EEF3E01C93A0AEFB7C262EDC5CD23EDAC
:10E2D000C1C5CD0CFAC1C53A0DEFB7C40FFAC1796B
:10E2E000210CEFFE7FC834FE20D0357EB7C879FE02
:10E2F00008C279ED35C9FE0AC03600C979CD14EDE2
:10E30000D290EDF50E5ECD48EDF1F6404F79FE0965
:10E31000C248ED0E20CD48ED3A0CEFE607C296ED6F
:10E32000C9CDACED0E20CD0CFA0E08C30CFA0E23AD
:10E33000CD48EDCDC9ED3A0CEF210BEFBED00E204C
:10E34000CD48EDC3B9ED0E0DCD48ED0E0AC348ED35
:10E350000AFE24C803C54FCD90EDC1C3D3ED3A0CDE
:10E36000EF320BEF2A43EF4E23E50600C5E5CDFB68
:10E37000ECE67FE1C1FE0DCAC1EEFE0ACAC1EEFEA7
:10E3800008C216EE78B7CAEFED053A0CEF320AEF85
:10E39000C370EEFE7FC226EE78B7CAEFED7E052B86
:10E3A000C3A9EEFE05C237EEC5E5CDC9EDAF320B10
:10E3B000EFC3F1EDFE10C248EEE5210DEF3E0196F0
:10E3C00077E1C3EFEDFE18C25FEEE13A0BEF210CEF
:10E3D000EFBED2E1ED35CDA4EDC34EEEFE15C26B1E
:10E3E000EECDB1EDE1C3E1EDFE12C2A6EEC5CDB1B9
:10E3F000EDC1E1E5C578B7CA8AEE234E05C5E5CD86
:10E400007FEDE1C1C378EEE53A0AEFB7CAF1ED213D
:10E410000CEF96320AEFCDA4ED210AEF35C299EE4A
:10E42000C3F1ED237704C5E54FCD7FEDE1C17EFE5D
:10E430000378C2BDEEFE01CA0000B9DAEFEDE1706B
:10E440000E0DC348EDCD06EDC301EFCD15FAC301A6
:10E45000EF793CCAE0EE3CCA06FAC30CFACD06FAE4
:10E46000B7CA91F9CD09FAC301EF3A0300C301EF2E
:10E4700021030071C9EB4D44C3D3EDCD23ED3245EB
:10E48000EFC93E01C301EF000200000000000000E0
:10E49000000000000000000000000000000000007C
:10E4A000000000000000000000000000000000006C
:10E4B000000000000000000000000000000000005C
:10E4C00000000000210BEC5E2356EBE90C0DC81A8E
:10E4D000771323C350EF3A42EF4FCD1BFA7CB5C8F8
:10E4E0005E23562322B3F9232322B5F9232322B72F
:10E4F000F92323EB22D0F921B9F90E08CD4FEF2AE9
:10E50000BBF9EB21C1F90E0FCD4FEF2AC6F97C21E3
:10E51000DDF936FFB7CA9DEF36003EFFB7C9CD180B
:10E52000FAAF2AB5F97723772AB7F9772377C9CDD8
:10E5300027FAC3BBEFCD2AFAB7C82109ECC34AEFCB
:10E540002AEAF90E02CDEAF022E5F922ECF921E5FA
:10E55000F94E23462AB7F95E23562AB5F97E23667B
:10E560006F7993789AD2FAEFE52AC1F97B955F7AB1
:10E570009C57E12BC3E4EFE52AC1F919DA0FF079D2
:10E5800095789CDA0FF0EBE123C3FAEFE1C5D5E50E
:10E59000EB2ACEF919444DCD1EFAD12AB5F97323D1
:10E5A00072D12AB7F9732372C179934F789A472AA7
:10E5B000D0F9EBCD30FA4D44C321FA21C3F94E3ADC
:10E5C000E3F9B71F0DC245F0473E08964F3AE2F90E
:10E5D0000DCA5CF0B717C353F080C92A43EF11107E
:10E5E0000019093ADDF9B7CA71F06E2600C9095E53
:10E5F0002356EBC9CD3EF04F0600CD5EF022E5F983
:10E60000C92AE5F97DB4C93AC3F92AE5F9293DC219
:10E6100090F022E7F93AC4F94F3AE3F9A1B56F2235
:10E62000E5F9C92A43EF110C0019C92A43EF110F6C
:10E630000019EB21110019C9CDAEF07E32E3F9EBE0
:10E640007E32E1F9CDA6F03AC5F9A632E2F9C9CD9C
:10E65000AEF03AD5F9FE02C2DEF0AF4F3AE3F981EF
:10E6600077EB3AE1F977C90C0DC87CB71F677D1FBE
:10E670006FC3EBF00E802AB9F9AF86230DC2FDF00F
:10E68000C90C0DC829C305F1C53A42EF4F2101005D
:10E69000CD04F1C179B56F78B467C92AADF93A42B2
:10E6A000EF4FCDEAF07DE601C921ADF94E2346CD0D
:10E6B0000BF122ADF92AC8F923EB2AB3F9732372BF
:10E6C000C9CD5EF1110900197E17D0210FECC34AA4
:10E6D000EFCD1EF1C8210DECC34AEF2AB9F93AE992
:10E6E000F9856FD024C92A43EF110E00197EC9CDD8
:10E6F00069F13600C9CD69F1F68077C92AEAF9EBEC
:10E700002AB3F97B96237A9EC9CD7FF1D813722B59
:10E7100073C97B956F7A9C67C90EFF2AECF9EB2AC7
:10E72000CCF9CD95F1D0C5CDF7F02ABDF9EB2AECA7
:10E73000F919C10CCAC4F1BEC8CD7FF1D0CD2CF1FE
:10E74000C977C9CD9CF1CDE0F10E01CDB8EFC3DAA8
:10E75000F1CDE0F1CDB2EF21B1F9C3E3F121B9F987
:10E760004E2346C324FA2AB9F9EB2AB1F90E80C325
:10E770004FEF21EAF97E23BEC03CC921FFFF22EA08
:10E78000F9C92AC8F9EB2AEAF92322EAF9CD95F169
:10E79000D219F2C3FEF13AEAF9E60306058705C28B
:10E7A00020F232E9F9B7C0C5CDC3EFCDD4F1C1C372
:10E7B0009EF179E6073C5F57790F0F0FE61F4F7800
:10E7C0008787878787B14F780F0F0FE61F472ABFCC
:10E7D000F9097E071DC256F2C9D5CD35F2E6FEC154
:10E7E000B10F15C264F277C9CD5EF111100019C5E1
:10E7F0000E11D10DC8D53ADDF9B7CA88F2C5E54E7C
:10E800000600C38EF20DC54E2346E579B0CA9DF2CF
:10E810002AC6F97D917C98D45CF2E123C1C375F2DC
:10E820002AC6F90E03CDEAF023444D2ABFF936007B
:10E83000230B78B1C2B1F22ACAF9EB2ABFF97323CC
:10E8400072CDA1EF2AB3F93603233600CDFEF10EC7
:10E85000FFCD05F2CDF5F1C8CD5EF13EE5BECAD2E1
:10E86000F23A41EFBEC2F6F2237ED624C2F6F23D62
:10E870003245EF0E01CD6BF2CD8CF1C3D2F23AD41A
:10E88000F9C301EFC5F53AC5F92F4779A04FF1A0BB
:10E8900091E61FC1C93EFF32D4F921D8F9712A434C
:10E8A000EF22D9F9CDFEF1CDA1EF0E00CD05F2CDCD
:10E8B000F5F1CA94F32AD9F9EB1AFEE5CA4AF3D561
:10E8C000CD7FF1D1D294F3CD5EF13AD8F94F060065
:10E8D00079B7CA83F31AFE3FCA7CF378FE0DCA7C6F
:10E8E000F3FE0C1ACA73F396E67FC22DF3C37CF3D2
:10E8F000C54ECD07F3C1C22DF31323040DC353F34B
:10E900003AEAF9E6033245EF21D4F97E17D0AF7722
:10E91000C9CDFEF13EFFC301EFCD54F10E0CCD1871
:10E92000F3CDF5F1C8CD44F1CD5EF136E50E00CD65
:10E930006BF2CDC6F1CD2DF3C3A4F3505979B0CA13
:10E94000D1F30BD5C5CD35F21FD2ECF3C1D12AC618
:10E95000F97B957A9CD2F4F313C5D5424BCD35F2B1
:10E960001FD2ECF3D1C1C3C0F3173CCD64F2E1D1A7
:10E97000C979B0C2C0F3210000C90E001E20D5061F
:10E98000002A43EF09EBCD5EF1C1CD4FEFCDC3EFD0
:10E99000C3C6F1CD54F10E0CCD18F32A43EF7E110E
:10E9A00010001977CDF5F1C8CD44F10E101E0CCD35
:10E9B00001F4CD2DF3C327F40E0CCD18F3CDF5F1F2
:10E9C000C80E001E0CCD01F4CD2DF3C340F40E0F84
:10E9D000CD18F3CDF5F1C8CDA6F07EF5E5CD5EF10D
:10E9E000EB2A43EF0E20D5CD4FEFCD78F1D1210C9E
:10E9F00000194E210F001946E1F17779BE78CA8BD4
:10EA0000F43E00DA8BF43E802A43EF110F001977B1
:10EA1000C97E23B62BC01A7713231A771B2BC9AFD5
:10EA20003245EF32EAF932EBF9CD1EF1C0CD69F192
:10EA3000E680C00E0FCD18F3CDF5F1C8011000CD62
:10EA40005EF109EB2A43EF090E103ADDF9B7CAE887
:10EA5000F47EB71AC2DBF477B7C2E1F47E12BEC20D
:10EA60001FF5C3FDF4CD94F4EBCD94F4EB1ABEC2C4
:10EA70001FF513231ABEC21FF50D13230DC2CDF4CB
:10EA800001ECFF09EB091ABEDA17F577010300095B
:10EA9000EB097E123EFF32D2F9C310F42145EF3567
:10EAA000C9CD54F12A43EFE521ACF92243EF0E0121
:10EAB000CD18F3CDF5F1E12243EFC8EB210F00199A
:10EAC0000E11AF77230DC246F5210D001977CD8CBD
:10EAD000F1CDFDF3C378F1AF32D2F9CDA2F4CDF58B
:10EAE000F1C82A43EF010C00097E3CE61F77CA8378
:10EAF000F5473AC5F9A021D2F9A6CA8EF5C3ACF5FF
:10EB000001020009347EE60FCAB6F50E0FCD18F3E8
:10EB1000CDF5F1C2ACF53AD3F93CCAB6F5CD24F542
:10EB2000CDF5F1CAB6F5C3AFF5CD5AF4CDBBF0AF14
:10EB3000C301EFCD05EFC378F13E0132D5F93EFFB9
:10EB400032D3F9CDBBF03AE3F921E1F9BEDAE6F5CB
:10EB5000FE80C2FBF5CD5AF5AF32E3F93A45EFB787
:10EB6000C2FBF5CD77F0CD84F0CAFBF5CD8AF0CDB0
:10EB7000D1EFCDB2EFC3D2F0C305EF3E0132D5F9EC
:10EB80003E0032D3F9CD54F12A43EFCD47F1CDBB4E
:10EB9000F03AE3F9FE80D205EFCD77F0CD84F00EA8
:10EBA00000C26EF6CD3EF032D7F9010000B7CA3B85
:10EBB000F64F0BCD5EF0444DCDBEF37DB4C248F6AA
:10EBC0003E02C301EF22E5F9EB2A43EF01100009F1
:10EBD0003ADDF9B73AD7F9CA64F6CD64F173C36C7C
:10EBE000F64F060009097323720E023A45EFB7C0CB
:10EBF000C5CD8AF03AD5F93D3DC2BBF6C1C5793DD8
:10EC00003DC2BBF6E52AB9F957772314F28CF6CD4D
:10EC1000E0F12AE7F90E0222E5F9C5CDD1EFC1CD29
:10EC2000B8EF2AE5F90E003AC4F947A5B823C29A0D
:10EC3000F6E122E5F9CDDAF1CDD1EFC1C5CDB8EFDE
:10EC4000C13AE3F921E1F9BEDAD2F677340E0200D7
:10EC500000210000F5CD69F1E67F77F1FE7FC2006B
:10EC6000F73AD5F9FE01C200F7CDD2F0CD5AF52121
:10EC700045EF7EB7C2FEF63D32E3F93600C3D2F06F
:10EC8000AF32D5F9C52A43EFEB212100197EE67F8B
:10EC9000F57E17237E17E61F4F7E1F1F1F1FE60FEF
:10ECA00047F1236E2C2D2E06C28BF72120001977F9
:10ECB000210C00197996C247F7210E00197896E6C3
:10ECC0007FCA7FF7C5D5CDA2F4D1C12E033A45EF57
:10ECD0003CCA84F7210C001971210E001970CD5126
:10ECE000F43A45EF3CC27FF7C1C52E040CCA84F745
:10ECF000CD24F52E053A45EF3CCA84F7C1AFC301D8
:10ED0000EFE5CD69F136C0E1C17D3245EFC378F161
:10ED10000EFFCD03F7CCC1F5C90E00CD03F7CC0330
:10ED2000F6C9EB194E0600210C00197E0FE6808112
:10ED30004F3E0088477E0FE60F8047210E00197E68
:10ED400087878787F58047F5E17DE1B5E601C90E44
:10ED50000CCD18F32A43EF11210019E57223722319
:10ED600072CDF5F1CA0CF8CD5EF1110F00CDA5F70B
:10ED7000E1E55F799623789E237B9EDA06F8732B74
:10ED8000702B71CD2DF3C3E4F7E1C92A43EF1120B5
:10ED900000CDA5F7212100197123702377C92AAF6F
:10EDA000F93A42EF4FCDEAF0E5EBCD59EFE1CC4730
:10EDB000EF7D1FD82AAFF94D44CD0BF122AFF9C337
:10EDC000A3F23AD6F92142EFBEC877C321F83EFF3D
:10EDD00032DEF92A43EF7EE61F3D32D6F9FE1ED21F
:10EDE00075F83A42EF32DFF97E32E0F9E6E077CDAE
:10EDF00045F83A41EF2A43EFB677C93E22C301EF07
:10EE000021000022ADF922AFF9AF3242EF2180009C
:10EE100022B1F9CDDAF1C321F8CD72F1CD51F8C3A9
:10EE200051F4CD51F8C3A2F40E00EB7EFE3FCAC2EE
:10EE3000F8CDA6F07EFE3FC472F1CD51F80E0FCD95
:10EE400018F3C3E9F12AD9F92243EFCD51F8CD2DBA
:10EE5000F3C3E9F1CD51F8CD9CF3C301F3CD51F8E3
:10EE6000C3BCF5CD51F8C3FEF5CD72F1CD51F8C359
:10EE700024F5CD51F8CD16F4C301F32AAFF9C32917
:10EE8000F93A42EFC301EFEB22B1F9C3DAF12ABF3D
:10EE9000F9C329F92AADF9C329F9CD51F8CD3BF4CD
:10EEA000C301F32ABBF92245EFC93AD6F9FEFFC2E6
:10EEB0003BF93A41EFC301EFE61F3241EFC9CD51B3
:10EEC000F8C393F7CD51F8C39CF7CD51F8C3D2F7EF
:10EED0002A43EF7D2F5F7C2F2AAFF9A4577DA35FD4
:10EEE0002AADF9EB22AFF97DA36F7CA26722ADF9C1
:10EEF000C93ADEF9B7CA91F92A43EF36003AE0F988
:10EF0000B7CA91F9773ADFF932D6F9CD45F82A0F29
:10EF1000EFF92A45EF7D44C9CD51F83E0232D5F9CB
:10EF20000E00CD07F7CC03F6C9E500000000800015
:10EF300000000000000000000000000000000000D1
:10EF400000000000000000000000000000000000C1
:10EF500000000000000000000000000000000000B1
:10EF600000000000000000000000000000000000A1
:10EF700000000000000000000000000000C30000CE
:10EF8000C30000C30000C30000C30000C30000C3EF
:10EF90000000C30000C30000C30000C30000C300A2
:10EFA00000C30000C30000C30000C30000C3000092
:10EFB000C33BFBC34EFBC374FBC380FBC38AFBC3D1
:10EFC00097FBC397FBC397FBC398FBC39DFBC3CBC6
:10EFD000FBC3D0FBC3E6FBC3EFFBC3F5FBC395FB51
:10EFE000C3D5FB73FA000000000000FAFB8DFAF4B1
:10EFF000FE7AFC73FA000000000000FAFB8DFA04B0
:10F00000FF99FC73FA000000000000FAFB8DFA146F
:10F01000FFB8FC73FA000000000000FAFB8DFA2430
:10F02000FFD7FC01070D1319050B111703090F1565
:10F0300002080E141A060C1218040A10161A0003FD
:10F040000700F2003F00C0001000020000000000B6
:10F0500000000000FAFBBCFA34FFF6FC00000000E0
:10F0600000000000FAFBBCFA34FFF5FD8000040F3D
:10F0700000F707FF03FFFF0000000036344B20437A
:10F08000502F4D20566572732E20322E3220285A72
:10F090003830204342494F532056312E3220666F7C
:10F0A00072205A383053494D2C20436F7079726961
:10F0B00067687420313938382D3230303720627922
:10F0C0002055646F204D756E6B290D0A00FFFFFF00
:10F0D000FFFFFFFFFFFFFFFFFFFFFFFFFFFFFFFF40
:10F0E0007EB7C84FCD8AFB23C330FB31800021CBD4
:10F0F000FACD30FBAF320300320400C353FB318042
:10F1000000DB463EC33200002103FA220100320533
:10F11000002106EC220600018000CDE6FB3A040047
:10F120004FC300E4DB01E602CA7EFB3EFFC9AFC964
:10F13000DB01E602CA80FBDB00C9DB01E601CA8A0B
:10F14000FB79D300C93EFFC9AF3221FBC9210000C2
:10F1500079FE04DAB1FBFE08CABEFBFE09CAC4FB95
:10F16000C93220FB6F292929291133FA19C9219C99
:10F17000FAC3C7FB21ACFA3220FBC9793221FBC9A3
:10F18000793222FBC97AB3C2E0FB69602CC024C982
:10F19000EB096E2600C9793223FB783224FBC9DBE8
:10F1A00052DB4EB7C9DB53DB4EC900000000000044
:10F1B000000000000000000000000000000000004F
:10F1C000000000000000000000000000000000003F
:10F1D000000000000000000000000000000000002F
:10F1E000000000000000000000000000000000001F
:10F4E00000000000000000F3C38700FFFFFFFFFFE4
:10F4F000FFFFFFFFFFFFFFFFFFFFFFFFFFFFFFFF1C
:10F50000FFFFFFFFFFFFFFFFFFFFFFFFFFFFFFFF0B
:10F51000FFFFFFFFFFFFFFFFFFFFFFFFFFFFFFFFFB
:10F52000FFFFFFFFFFFFFFFFFFFFFFFFFFFFFFFFEB
:10F53000FFFFFFFFFFFFFFFFFFFFFFFFFFFFFFFFDB
:10F54000FFFFFFFFFFFFFFFFFFFFFFFFFFFFFFFFCB
:10F55000FFFFFFFFFFFFFFFFFFFFFFFFFFFFFFFFBB
:10F56000FFFFFFFF0D0A49504C3A00F331800021A4
:10F570008000CD29033E7F3CEACC0001FFFFC5F1AE
:10F58000F5D17BE622CA7C027BE62AFE02CA89010B
:10F590007BE60AFE0ACAD9017BE62AFE22C22203C2
:10F5A000010000C5F1F5D17BE62ACA2A02C3220375
:10F5B00001FF00ED4C78B1C2D0023EC0ED393F3EB4
:10F5C00000ED39F23E00ED39F63E7FED39FEED38C3
:10F5D000FEE680205A3EE0ED39FEAFED39D2ED383F
:10F5E000D2E640204A3E10ED39F23E80ED39DF3E52
:10F5F000FFED39DE211901CD2903C322035A385307
:10F600003138302072756E6E696E67206D656D6F72
:10F61000727920307761697420492F4F20327761E9
:10F62000697420327820636C6F636B0D0A0A0021C5
:10F630005401CD2903C322034844363431383020E5
:10F6400072756E6E696E67206D656D6F72792030B0
:10F650007761697420492F4F2031776169742030B8
:10F660002E357820636C6F636B0D0A0A00219201BE
:10F67000CD2903C3220369383038302072756E6E8D
:10F68000696E672028666C61672062697432206940
:10F6900073205061726974792061667465722061AB
:10F6A000726974686D617469632C206269743533A2
:10F6B0003120697320303031290D0A0A0021E2011E
:10F6C000CD2903C3220375504438303830412072AD
:10F6D000756E6E696E672028666C6167206269745A
:10F6E0003220697320506172697479206166746593
:10F6F000722061726974686D617469632C2062693B
:10F70000743331206973203131290D0A0A00213305
:10F7100002CD2903C3220369383038352072756E53
:10F720006E696E672028666C61672062697432209A
:10F730006973205061726974792061667465722002
:10F7400061726974686D617469632C2062697435D3
:10F750002C31207772697461626C65290D0A0A0088
:10F76000218502CD2903C322034D5943505538301A
:10F770002072756E6E696E672028666C6167206204
:10F7800069743220697320506172697479206166EE
:10F790007465722061726974686D617469632C208C
:10F7A000626974312C3520616C776179732030295E
:10F7B0000D0A0A0021D902CD2903C322035A383089
:10F7C0002072756E6E696E672028666C61672062B4
:10F7D000697432206973204F766572666C6F77208A
:10F7E00061667465722061726974686D61746963C1
:10F7F0002C206E6F204D4C542066756E6374696FBB
:10F800006E290D0A0A00DB47DB46C300FA7EB7C843
:10F810004FCD340323C32903DB01E601CA34037946
:10F82000D300C9534420436172643A207265616415
:10F830003531323A20435243206572726F7220286C
:10F840002530347820213D20253034782C207265F5
:10F850007472793D2564290A0D00496D6167652040
:10F8600066696C652025732F445249564525632EE1
:10F8700044534B2069732061737369676E6564201C
:10F88000746F2064726976652025630A0D00534405
:10F8900020436172643A2020726561643531323AE6
:10F8A00020616464723D25386C642C206F66667339
:10F8B0003D25642C20636F756E743D25640A0D0030
:10F8C000534420436172643A20777269746535311C
:10F8D000323A20616464723D25386C642C206F6676
:10F8E00066733D25642C20636F756E743D25640A34
:10F8F0000D00534420436172643A20777269746545
:10F900003531323A206661696C656420746F206716
:10F91000657420746F6B656E2C2074696D656F75EE
:10F92000740A0D006469736B5F696F63746C3A20CD
:10F93000706472763D25642C20636D643D25642CD3
:10F9400020627566663D3078256C783A2072657362
:10F950003D25640A0D00534420436172643A2077C8
:10F96000726974653531323A2074696D656F7574EA
:10F970002C20726573706F6E73652069732025305B
:10F9800032780A0D00534420436172643A20434D9B
:10F990004435382C2052333D253032782025303202
:10F9A0007820253032782025303278202530327882
:10F9B0000A0D0025733A204552524F523A20636C8B
:10F9C0006F636B2073706565642025642069732004
:10F9D0006E6F7420737570706F727465640A0D00B9
:10F9E000534420436172643A20434D44382C2052E2
:10F9F000373D253032782025303278202530327856
:10FA0000202530327820253032780A0D0064697361
:10FA10006B5F696F63746C3A20706472763D256425
:10FA20002C20636D643D25643A204E6F742068611C
:10FA30006E646C65642E0A0D006469736B5F726599
:10FA400061643A2020706472763D25642C207365D1
:10FA500063746F723D256C642C20636F756E743D0A
:10FA600025640A0D006469736B5F77726974653A87
:10FA700020706472763D25642C20736563746F7208
:10FA80003D256C642C20636F756E743D25640A0DF2
:10FA900000534420436172643A2043435320284377
:10FAA0006172642043617061636974792053746189
:10FAB0007475732920697320300A0D005344204364
:10FAC0006172643A2077726974653531323A204345
:10FAD0005243206572726F72202872657472793D8C
:10FAE0002564290A0D00534420436172643A20437F
:10FAF00061726420706F7765722075702073746115
:10FB00007475732062697320697320300A0D005583
:10FB10007365204E434F312D3E52413320252E3206
:10FB200066204D487A20666F722038303835206361
:10FB30006C6F636B0A0D0072656164204D42522048
:10FB4000706172746974696F6E207461626C652093
:10FB5000617420736563746F7220300A0D00534422
:10FB600020436172643A2053444843206F7220530B
:10FB700044584320636172642064657465637465EE
:10FB8000640A0D0025733A204552524F523A206DB7
:10FB90006F6465202564206973206E6F742073750F
:10FBA00070706F727465640A0D005741524E494E71
:10FBB000473A20756E6B6E6F776E20492F4F20721B
:10FBC00065616420282530325848290A0D005344C5
:10FBD00020436172643A20696E697469616C697A64
:10FBE00065202E2E2E207375636365656465640A37
:10FBF0000D00534420436172643A20756E6578703D
:10FC0000656374656420726573706F6E736520251B
:10FC10003032780A0D00534420436172643A204127
:10FC2000434D44343120726573706F6E7365206983
:10FC30007320253032780A0D0053442043617264EA
:10FC40003A2077726974653531323A20746F6B658A
:10FC50006E20697320253032780A0D004D656D6F76
:10FC6000727920303030303030202D202530366C05
:10FC70005848202564204B42204F4B0D0A00534426
:10FC800020436172643A20434D44353920726573D4
:10FC9000706F6E736520697320253032780A0D000D
:10FCA000706172746974696F6E20737461727473B9
:10FCB00020617420736563746F7220256C640A0D73
:10FCC00000665F777269746528293A204552524F61
:10FCD00052207265733D25642C206E3D25640A0D0B
:10FCE00000665F7265616428293A204552524F527E
:10FCF000207265733D25642C206E3D25640A0D003D
:10FD0000426F6172643A2053424338303830202BBE
:10FD100020454D555A38302D3537510A0D00666152
:10FD2000696C656420746F207772697465207365EF
:10FD300063746F7220256C640A0D000A0D53442011
:10FD4000436172643A20696E697469616C697A65AD
:10FD5000202E2E2E0A0D006661696C656420746F7A
:10FD6000207265616420736563746F7220256C6412
:10FD70000A0D004661696C656420746F206F7065C0
:10FD80006E20534420436172642E2E0A0D0046619A
:10FD9000696C656420746F206D6F756E74205344B8
:10FDA00020436172642E0A0D005344204361726443
:10FDB0003A2041434D4434312C2052313D253032DC
:10FDC000780A0D006661696C656420746F20726545
:10FDD000616420736563746F7220300A0D00202007
:10FDE0002020202020202020202020202020202013
:10FDF00020202020200D007761697420666F72201A
:10FE000070726F6772616D6D6572202E2E2E0D00FF
:10FE1000534420436172643A206E6F74207375708E
:10FE20006F70727465640A0D0053442043617264FC
:10FE30003A20434D44302C2052313D253032780A4F
:10FE40000D006469736B5F696E697469616C697ACE
:10FE500065282564292E2E2E0A0D004D656D6F72C2
:10FE60007920303030303030202D202530366C581D
:10FE7000480D0025732535337320434845434B53C4
:10FE8000554D3A20253032780A0D00706879736933
:10FE900063616C2064726976657220213D20300AAE
:10FEA0000D00665F6C7365656B28293A20455252D8
:10FEB0004F522025640A0D00665F73796E6328290E
:10FEC0003A204552524F522025640A0D006E6F2091
:10FED000464154333220706172746974696F6E0ADE
:10FEE0000D00534420436172643A2074696D656F5C
:10FEF00075740A0D006E6F204D4252207369676E53
:10FF000061747572650A0D0025732069732073652D
:10FF10006C65637465642E0A0D0073656C656374AB
:10FF2000204552524F522025640A0D00534420436D
:10FF30006172643A2072656164792E0A0D006E6FF9
:10FF40002076616C696420766F6C756D650A0D00B2
:10FF50005350495F53445F636F6E6669677572659E
:10FF6000004E6F20626F6F74206469736B2E0A0DF0
:10FF70000025732F445249564525632E44534B00A8
:10FF80002A2B2C3A3B3C3D3E5B5D7C223F7F004E62
:10FF90006F20534420436172643F0A0D0025643A88
:10FFA0002025730A0D0053656C6563743A20004385
:10FFB000504D4449534B5300464154333220202086
:10FFC0000025732530366C783A0043504D44495330
:10FFD0007E002573253034783A00286E756C6C29C4
:10FFE000002025303278006661743A200053443A8C
:10FFF0002000303A2F2F00696E66006E616E00009F
:020000040001F9
:10000000000E0501816F4AC582F54BC583F54CC5CD
:1000100084F54DC585F585AF14D0010E816F82C57D
:1000200001F583C502F584C503F585C504F5D4EC57
:10003000CEF001C582F502C583F503C584F504C57C
:1000400085F5000E876F000E866F13C771F514C714
:1000500072F58151D8B40DD08151D8A404D0000ECE
:10006000676F2B0E03D0000E676F2D0E666F66C58F
:1000700081F582C501F583C502F584C503F585C503
:1000800004F532ECC2F001040210D8A42DD0050111
:100090008151D8B409D081C52CF77107D8A0720757
:1000A000000E876F010E866F2C0E8625016E070EDF
:1000B0008721026EF70E036EFF0E046E89ECCEF000
:1000C0000501FD0E7127FF0E722348C512F549C5C3
:1000D00013F52C0E146E070E156E71C516F572C54C
:1000E00017F5D4ECC9F0120082C501F583C502F5FD
:1000F00084C503F585C504F532ECC2F00150021049
:10010000D8A41AD005018151D8B409D081C52CF7E3
:100110007107D8A07207000E876F010E866F2C0E34
:100120008625016E070E8721026EFB0E036EFF0E01
:10013000046E89ECCEF0C4D7000E0501886F000E66
:10014000896F800E8A6F3F0E8B6F000E706F000EEE
:100150006F6F82C501F583C502F584C503F585C5BA
:1001600004F5000E056E000E066E000E076E000E02
:10017000086ECCECC8F0D8A00CD0BED073C588F502
:1001800074C589F575C58AF576C58BF505016F4B84
:10019000702B88C501F589C502F58AC503F58BC5A5
:1001A00004F5000E056E000E066E200E076E410E61
:1001B000086E17ECA2F001C573F502C574F503C50E
:1001C00075F504C576F505017351825D016E7451B4
:1001D0008359026E75518459036E76518559046EA8
:1001E000FEECCCF004BECAD704500310021004E1A8
:1001F000020E015CD8A0C2D773C51AF574C51BF5F1
:1002000075C51CF576C51DF582C51EF583C51FF5A0
:1002100084C520F585C521F563ECC1F0D8A0AED723
:1002200005018851825D016E89518359026E8A51A0
:100230008459036E8B518559046EFEECCCF004BEDC
:1002400008D004500310021043E1020E015CD8B044
:100250003FD088C582F589C583F58AC584F58BC5ED
:1002600085F54AD088C51BF589C51CF58AC51DF5DD
:100270008BC51EF5000E1F6E000E206E200E216E27
:10028000410E226E63ECA9F01BC588F51CC589F5EB
:100290001DC58AF51EC58BF505016F07D8A070072F
:1002A0008851825D016E89518359026E8A51845949
:1002B000036E8B518559046EFEECCCF004BEC9D799
:1002C00004500310021004E1020E015CD8A0C1D753
:1002D00082C51AF583C51BF584C51CF585C51DF5BA
:1002E00088C51EF589C51FF58AC520F58BC521F582
:1002F00063ECC1F0D8A0B6D74EC569F569C56AF5FB
:10030000070116BF05D015C762F516C763F505D0FE
:10031000000E0501636F060E626F62C56DF563C561
:100320006EF505016D4B6E2B660E6A19D8A416D0BA
:1003300070AF0CD0000E886F000E896F800E8A6F30
:100340003F0E8B6F000E706F000E6F6F670E691996
:10035000D8B404D06F516D2770516E23000E806F9A
:10036000000E7F6F82C577F583C578F584C579F572
:1003700085C57AF588C573F589C574F58AC575F59F
:100380008BC576F57BD077C51BF578C51CF579C58F
:100390001DF57AC51EF588C51FF589C520F58AC5E6
:1003A00021F58BC522F563ECA9F01BC534F51CC5FE
:1003B00035F51DC536F51EC537F5BDECB4F034C5B1
:1003C0007BF535C57CF536C57DF537C57EF57BC536
:1003D00001F57CC502F57DC503F57EC504F581EC0C
:1003E000C4F001C56BF502C56CF577C51AF578C583
:1003F0001BF579C51CF57AC51DF57BC505F57CC5D2
:1004000006F57DC507F57EC508F588C501F589C5E2
:1004100002F58AC503F58BC504F517ECA2F001C5FA
:100420001EF502C51FF503C520F504C521F56CECCA
:10043000CDF01AC577F51BC578F51CC579F51DC536
:100440007AF588C51BF589C51CF58AC51DF58BC5D0
:100450001EF5000E1F6E000E206E200E216E410E46
:10046000226E63ECA9F01BC588F51CC589F51DC576
:100470008AF51EC58BF505017F4B802B6D517F5D85
:100480008051800A4F6E6E51800A4F58D8A07BD79A
:1004900088C501F589C502F58AC503F58BC504F544
:1004A000000E056E000E066EA00E076E400E086E62
:1004B00017ECA2F001C57BF502C57CF503C57DF5FF
:1004C00004C57EF577C51AF578C51BF579C51CF509
:1004D0007AC51DF57BC51EF57CC51FF57DC520F5CC
:1004E0007EC521F563ECC1F0D8B003D0000E050144
:1004F00018D077C501F578C502F579C503F57AC539
:1005000004F57BC505F57CC506F57DC507F57EC5FB
:1005100008F5CCECC8F0D8A00BD005016BB108D021
:10052000000E7B6F000E7C6F000E7D6F000E7E6FE5
:1005300082C501F583C502F584C503F585C504F5BB
:100540007BC505F57CC506F57DC507F57EC508F5B7
:10055000ADECA3F001C577F502C578F503C579F5D3
:1005600004C57AF577C51AF578C51BF579C51CF56C
:100570007AC51DF5000E056E000E066E200E076E84
:10058000410E086E73C501F574C502F575C503F516
:1005900076C504F517ECA2F001C51EF502C51FF5DE
:1005A00003C520F504C521F563ECC1F0D8A024D023
:1005B00005016F4B702B73C501F574C502F575C548
:1005C00003F576C504F5000E056E000E066E200ECE
:1005D000076E410E086E17ECA2F001C573F502C557
:1005E00074F503C575F504C576F5660E05016A193F
:1005F000D8A402D06D4B6E2B73C588F574C589F5F0
:1006000075C58AF576C58BF56FC560F570C561F562
:10061000000E0501686F000E656F000E646F000E1E
:10062000806F000E7F6FCDD077C51BF578C51CF5A8
:1006300079C51DF57AC51EF588C51FF589C520F554
:100640008AC521F58BC522F563ECA9F01BC534F5ED
:100650001CC535F51DC536F51EC537F5BDECB4F026
:1006600034C57BF535C57CF536C57DF537C57EF5DA
:100670007BC501F57CC502F57DC503F57EC504F596
:1006800081ECC4F002BE06D0025013E10A0E015CF8
:10069000D8B00FD07BC501F57CC502F57DC503F54B
:1006A0007EC504F581ECC4F001C56BF502C56CF59F
:1006B00005D0000E05016C6F090E6B6F05016851C6
:1006C000D8B461AF20D02C0E8625D96E070E8721B5
:1006D000DA6E2E0EDF6E864B872B7107D8A072075D
:1006E000010E686F10D02C0E8625D96E070E87215B
:1006F000DA6E300EDF6E864B872B7107D8A072073B
:100700006407D8A0650764516511D8A4ECD72C0EF6
:100710008625D96E070E8721DA6E6B51300FDF6E9A
:10072000864B872B7107D8A0720777C51AF578C555
:100730001BF579C51CF57AC51DF57BC505F57CC58E
:1007400006F57DC507F57EC508F588C501F589C59F
:1007500002F58AC503F58BC504F517ECA2F001C5B7
:100760001EF502C51FF503C520F504C521F56CEC87
:10077000CDF01AC577F51BC578F51CC579F51DC5F3
:100780007AF588C51BF589C51CF58AC51DF58BC58D
:100790001EF5000E1F6E000E206E200E216E410E03
:1007A000226E63ECA9F01BC588F51CC589F51DC533
:1007B0008AF51EC58BF505016007D8A061077F4B40
:1007C000802B6D517F5D8051800A4F6E6E51800A83
:1007D0004F58D8B008D087BF27D7875104E14B0EB8
:1007E000865DD8A021D7000E806F4F0E7F6F2C0E34
:1007F0007F25D96E070E8021DA6EDF6A2C0E4F6ED0
:10080000070E506E86514F5E8751505A7F514F24CC
:10081000016E80515020026E2C0E036E070E046E86
:1008200086C505F587C506F5B1ECCDF00501865105
:100830007F5D866F87518059876F8151D8B402D010
:10084000010E01D0000E7F6F806B0601FFB30FD049
:1008500023D08607D8A087072C0E8625D96E070ED1
:100860008721DA6E300EDF6E7107D8A0720705019E
:1008700071517F5D8051800A4F6E7251800A4F58CE
:10088000D8B00AD086517F5D8051800A4F6E875163
:10089000800A4F58D8A0DDD705018151D8B40BD0BC
:1008A0008607D8A087072C0E8625D96E070E8721CC
:1008B000DA6E81C5DFF47F51715F8051725B48C58C
:1008C00012F549C513F52C0E8625146E070E8721E7
:1008D000156E71C516F572C517F5D4ECC9F0120086
:1008E00083C6D9F484C6DAF4DE6ADD6A81C601F50E
:1008F00082C602F55EECB9F001C592F602C593F628
:10090000060193AF02D00B0E1200D8909235D96E2B
:100910009335DA6E230ED926070EDA22DEC4ADF641
:10092000DDC4AEF6AD51AE11D8A402D00C0E12004B
:1009300083C6D9F484C6DAF4ADC6DEF4AEC6DDF4FF
:100940008591ADC6D9F4AEC6DAF4DF50D8B415D06F
:1009500020EE01F0AD51D926AE51DA22DF5079EC0C
:10096000CFF00601A26FA2B108D08551D8A4A2A5EC
:1009700002D00A0E1200000E1200ADC6D9F4AEC6A7
:10098000DAF4DF6A20EE01F0AD51D926AE51DA2259
:10099000DF500FECBDF00601A26FA2A102D0030E42
:1009A00012008551D8B402D0A2B5E3D7ADC618F66F
:1009B000AEC619F6000E1B6F000E1A6F2AECB7F0C8
:1009C00018C6ABF619C6ACF6040EAB19AC11D8A418
:1009D00002D0010E1200AC5104E1020EAB5DD8A0B2
:1009E00002D00D0E120020EE2CF0AD51D926AE51E2
:1009F000DA22DEC49EF6DEC49FF6DEC4A0F6DEC4B4
:100A0000A1F63B0EAD25016E000EAE21026E35EC57
:100A1000CEF0020E02180110D8A4E3D7460E06014C
:100A2000AD25016E000EAE21026E35ECCEF001C593
:100A3000A7F602C5A8F60601A96BAA6BA751A811D3
:100A4000A911AA11D8A410D0540EAD25016E000E24
:100A5000AE21026EDEECC4F001C5A7F602C5A8F611
:100A600003C5A9F604C5AAF620EE18F0AD51D926A3
:100A7000AE51DA22A7C6DEF4A8C6DEF4A9C6DEF4BB
:100A8000AAC6DEF420EE40F0AD51D926AE51DA22EE
:100A900010EE03F0AD51E126AE51E222DFC4E7F4DF
:100AA00020EE03F0AD51D926AE51DA22DE04D8B4DF
:100AB0000AD020EE03F0AD51D926AE51DA22020E53
:100AC000DE18D8A48ED7A7C601F5A8C602F5A9C618
:100AD00003F5AAC604F520EE03F0AD51D926AE51B8
:100AE000DA22DF50866F8651056E066A076A086A49
:100AF00033ECCCF001C5A7F602C5A8F603C5A9F6EC
:100B000004C5AAF6060120EE3DF0AD51D926AE513E
:100B1000DA22DF50866F876B20EE0AF0AD51D926BE
:100B2000AE51DA2286C6DEF487C6DDF420EE0AF086
:100B3000AD51D926AE51DA22DE50DE10D8B451D7ED
:100B400020EE0AF0AD51D926AE51DA22DEC486F687
:100B5000DDC487F620EE0AF0AD51D926AE51DA2277
:100B6000DEC488F6DDC489F6FF0E88258A6FFF0E85
:100B700089218B6F86518A158C6F87518B158D6FEC
:100B80008C518D11D8A42DD7410EAD25016E000ECC
:100B9000AE21026E35ECCEF0060120EE08F0AD512C
:100BA000D926AE51DA2201C5DEF402C5DDF420EE0D
:100BB00008F0AD51D926AE51DA22DF50866F0F0E04
:100BC0008617D8A40ED7430EAD25016E000EAE21B8
:100BD000026E35ECCEF001C59AF602C59BF6060111
:100BE0009C6B9D6B9A519B119C119D11D8A410D0A8
:100BF000500EAD25016E000EAE21026EDEECC4F08B
:100C000001C59AF602C59BF603C59CF604C59DF680
:100C10003E0EAD25016E000EAE21026E35ECCEF01B
:100C200001C598F602C599F6060198519911D8B4F4
:100C3000D8D620EE08F0AD51D926AE51DA22DEC466
:100C400086F6DDC487F6040E886FD8908733863326
:100C5000882FFBD798518625896F995187218A6FF4
:100C60008B6BD8B08B2B8C6BA7518925946FA851B7
:100C70008A21956FA9518B21966FAA518C21976F6C
:100C800094519A5D95519B5996519C5997519D59F4
:100C9000D8A0A7D694519A5D016E95519B59026ECA
:100CA00096519C59036E97519D59046E20EE0AF09F
:100CB000AD51D926AE51DA22DEC486F6DDC487F600
:100CC00086C605F587C606F5076A086A93ECC9F07B
:100CD00001C5A3F602C5A4F603C5A5F604C5A6F68C
:100CE000A351A411A511A611D8B47BD6000EAC6FE8
:100CF000000EAB6FF60EA35DFF0EA459FF0EA559B3
:100D00000F0EA659D8B004D0000EAC6F030EAB6F17
:100D1000A651A5110AE1F60EA35DFF0EA459D8B0A5
:100D200004D0000EAC6F020EAB6FA651A5110AE104
:100D3000F60EA35D0F0EA459D8B004D0000EAC6F10
:100D4000010EAB6FAB51AC11D8B44BD6020EA3253C
:100D5000866F000EA421876F000EA521886F000EFC
:100D6000A621896F20EE14F0AD51D926AE51DA22BA
:100D700086C6DEF487C6DEF488C6DEF489C6DEF4F5
:100D800020EE1CF0AD51D926AE51DA229EC6DEF41B
:100D90009FC6DEF4A0C6DEF4A1C6DEF498519E25FF
:100DA000866F99519F21876F000EA021886F000EDA
:100DB000A121896F20EE20F0AD51D926AE51DA2263
:100DC00086C6DEF487C6DEF488C6DEF489C6DEF4A5
:100DD00094519E25866F95519F21876F9651A02132
:100DE000886F9751A121896F20EE28F0AD51D92647
:100DF000AE51DA2286C6DEF487C6DEF488C6DEF49B
:100E000089C6DEF4030EAB19AC11D8A44CD05A0E2F
:100E1000AD25016E000EAE21026E35ECCEF0015014
:100E20000210D8A4DED5060120EE08F0AD51D92677
:100E3000AE51DA22DE50DE10D8A4D3D55C0EAD253B
:100E4000016E000EAE21026EDEECC4F020EE24F046
:100E5000AD51D926AE51DA2201C5DEF402C5DEF469
:100E600003C5DEF404C5DEF420EE14F0AD51D9263E
:100E7000AE51DA22DEC486F6DEC487F6DEC488F61A
:100E8000DEC489F6020ED8908637873788378937CF
:100E9000E82EF9D786C68EF687C68FF688C690F6F6
:100EA00089C691F692D020EE08F0AD51D926AE5108
:100EB000DA22DE50DE10D8B494D520EE20F0AD5109
:100EC000D926AE51DA22DEC486F6DEC487F6DEC449
:100ED00088F6DEC489F6A75186258A6FA851872136
:100EE0008B6FA95188218C6FAA5189218D6F20EEBB
:100EF00024F0AD51D926AE51DA228AC6DEF48BC673
:100F0000DEF48CC6DEF48DC6DEF4020EAB19AC1135
:100F1000D8B444D020EE14F0AD51D926AE51DA2227
:100F2000DEC486F6DEC487F6DEC488F6DEC489F643
:100F3000010E86158A6F000E87158B6F000E8815BF
:100F40008C6F000E89158D6F20EE14F0AD51D926EF
:100F5000AE51DA22DEC401F5DEC402F5DEC403F5CB
:100F6000DEC404F5030E056E000E066E000E076E5D
:100F7000000E086E33ECCCF0D8900432033202320B
:100F8000013206018A5101248E6F8B5102208F6F2E
:100F90008C510320906F8D51042016D020EE14F058
:100FA000AD51D926AE51DA22DEC486F6DEC487F60C
:100FB000DEC488F6DEC489F6D89086358E6F873514
:100FC0008F6F8835906F8935916FFF0E8E25866FF4
:100FD000010E8F21876F000E9021886F000E9121E6
:100FE000896F0A0E05D0D8908933883387338633CA
:100FF000E82EF9D720EE18F0AD51D926AE51DA22FD
:101000008651DE5C8751DE588851DE588951DE58A2
:10101000D8A0E7D420EE10F0AD51D926AE51DA2297
:10102000FF0EDE6EFF0EDE6EFF0EDE6EFF0EDD6E5D
:10103000DD52DD5210EE0CF0AD51E126AE51E22250
:10104000DEC4E6F4DEC4E6F4DEC4E6F4DEC4E6F4B0
:1010500020EE05F0AD51D926AE51DA22800EDF6EBA
:10106000030EAB19AC11D8A490D0600EAD25016E63
:10107000000EAE21026E35ECCEF001040210D8A4B1
:1010800084D0ADC600F6AEC601F6010E06019E255F
:10109000026F000E9F21036F000EA021046F000E4F
:1010A000A121056F23ECC4F00009D8A46ED006017D
:1010B00020EE05F0AD51D926AE51DA22DF6A2E0EB0
:1010C000AD25016E020EAE21026E35ECCEF0550E4E
:1010D00001185BE1AA0E0218D8A457D0300E060101
:1010E000AD25016E000EAE21026EDEECC4F0520E94
:1010F00001184BE1520E021848E1610E031845E158
:10110000410E0418D8A441D0140EAD25016E020E74
:10111000AE21026EDEECC4F0720E011836E1720EE2
:10112000021833E1410E031830E1610E0418D8A40F
:101130002CD0180EAD25016E020EAE21026EDEEC33
:10114000C4F020EE10F0AD51D926AE51DA2201C51F
:10115000DEF402C5DEF403C5DEF404C5DEF41C0EC5
:10116000AD25016E020EAE21026EDEECC4F020EE63
:101170000CF0AD51D926AE51DA2201C5DEF402C51C
:10118000DEF403C5DEF404C5DEF4ADC6D9F4AEC6A4
:10119000DAF4ABC6DFF40701214B222B060120EE67
:1011A00006F0AD51D926AE51DA2221C7DEF422C7AE
:1011B000DDF4BBEF84F04AC661F64BC662F64EC65C
:1011C000D9F44FC6DAF4DE6ADD6A48C6A6F549C628
:1011D000A7F5710E0501A86F060EA96F62ECC3F0AA
:1011E0000601606F6051D8A40BD020EE0FF048517B
:1011F000D9264951DA22DF50606F6051D8B402D04D
:101200006051120020EE0EF04851D9264951DA22E1
:10121000DFB202D0070E120020EE10F04851D9269E
:101220004951DA2210EE10F04851E1264951E222EC
:10123000E6C454F6E6C455F6E6C456F6E6C457F6D8
:101240004C515425586F4D515521596F000E562160
:101250005A6F000E57215B6FDE50585DDE505959B2
:10126000DE505A59DE505B59D8B00ED020EE10F047
:101270004851D9264951DA22DEC450F6DDC451F670
:10128000501D4C6F511D4D6F4C514D11D8B405D3AD
:1012900020EE10F04851D9264951DA22FF0EDE1413
:1012A000506F010EDE14516F000EDE14526F000EEF
:1012B000DE14536F5051511152115311D8A449D219
:1012C00020EE10F04851D9264951DA22DEC450F6FA
:1012D000DEC451F6DEC452F6DEC453F60A0E05D063
:1012E000D8905333523351335033E82EF9D720EE90
:1012F0000AF07151D9267251DA22DEC454F6DDC4E7
:1013000055F6FF0E5425566FFF0E5521576F50515D
:101310005615636F51515715646F63516411D8A40A
:101320009CD020EE10F04851D9264951DA22DE50E7
:10133000DE10DE10DE10D8A423D020EE06F04851D7
:10134000D9264951DA22DEC467F6DEC468F6DEC467
:1013500069F6DEC46AF66751681169116A11D8A48A
:101360002BD048C62BF649C62CF6000E2D6F000E6A
:101370002E6F000E2F6F000E306F96EC98F014D089
:1013800048C62BF649C62CF620EE14F04851D92653
:101390004951DA22DEC42DF6DEC42EF6DEC42FF665
:1013A000DEC430F696EC98F02BC667F62CC668F6CD
:1013B0002DC669F62EC66AF66751681169116A1161
:1013C000D8B46BD26705681169116A11D8A40AD024
:1013D00020EE0FF04851D9264951DA22020EDF6E75
:1013E000020E1200672911E168290FE169290DE158
:1013F0006A29D8A40AD020EE0FF04851D9264951C5
:10140000DA22010EDF6E010E120020EE14F04851B8
:10141000D9264951DA2267C6DEF468C6DEF469C609
:10142000DEF46AC6DEF420EE06F04851D9264951B2
:10143000DA22DE50DE10DE10DE10D8A40ED020EE50
:1014400006F04851D9264951DA2267C6DEF468C64B
:10145000DEF469C6DEF46AC6DEF420EE0EF0485112
:10146000D9264951DA22DFAE33D0220E48250501B4
:10147000E26F000E060149210501E36F060120EE2F
:1014800018F04851D9264951DA22DEC4E4F5DEC409
:10149000E5F5DEC4E6F5DEC4E7F5000E0501E96F0B
:1014A000010EE86F060120EE01F07151D92672514C
:1014B000DA22DF5011ECC9F00009D8A439D10601B5
:1014C00020EE0EF04851D9264951DA227F0EDF1660
:1014D00071C60DF572C60EF520EE14F04851D926EE
:1014E0004951DA22DEC40FF5DEC410F5DEC411F571
:1014F000DEC412F5C3ECC3F00DC56DF60EC56EF675
:101500000FC56FF610C570F606016D516E116F11A3
:101510007011D8B45DD763516D2764516E23000EEE
:101520006F23000E70234CC650F64DC651F6090EBF
:10153000526FD89051335033522FFBD750C665F6B7
:1015400051C666F665516611D8B4A7D065516325BA
:10155000506F66516421516F20EE0AF07151D92607
:101560007251DA225051DE5C5151DE58D8B010D0A1
:1015700020EE0AF07151D9267251DA22DEC450F6FB
:10158000DDC451F66351505D656F64515159666F0A
:1015900061C6E2F562C6E3F56DC6E4F56EC6E5F533
:1015A0006FC6E6F570C6E7F565C6E8F566C6E9F507
:1015B00020EE01F07151D9267251DA22DF5011EC80
:1015C000C9F00009D8A4B4D006016551506F665126
:1015D000516F526B536B20EE18F04851D926495188
:1015E000DA22DEC454F6DEC455F6DEC456F6DEC496
:1015F00057F66D51545D586F6E515559596F6F5173
:1016000056595A6F705157595B6F5051585D51512F
:10161000595952515A5953515B59D8B02FD0220EB3
:101620004825016E000E4921026E20EE18F0485147
:10163000D9264951DA22DEC450F6DDC451F66D5187
:10164000505F6E51515B090ED89050375137E82EDC
:10165000FBD750516125036E51516221046E020E79
:10166000066E000E056EB1ECCDF0060120EE0EF018
:101670004851D9264951DA227F0EDF1665C650F649
:1016800066C651F6090ED89050375137E82EFBD771
:1016900050C66BF651C66CF6ADD020EE18F048512E
:1016A000D9264951DA226D51DE180AE16E51DE1851
:1016B00007E16F51DE1804E17051DE18D8B43AD05A
:1016C00020EE0AF04851D9264951DA2210EE10F0E6
:1016D0004851E1264951E222DE50E65CDE50E658F0
:1016E000DE50E658DE50E658D8B024D0220E482509
:1016F0000501E46F000E060149210501E56F6DC685
:10170000E6F56EC6E7F56FC6E8F570C6E9F5000EBA
:10171000EB6F010EEA6F060120EE01F07151D92640
:101720007251DA22DF5052ECC9F00009D8B402D06D
:10173000060161D6060120EE18F04851D92649511C
:10174000DA226DC6DEF46EC6DEF46FC6DEF470C655
:10175000DEF420EE10F04851D9264951DA22DEC4D9
:1017600050F6DDC451F6FF0E5015526F010E5115A3
:10177000536F525100086B6F5351D8A0E82A0208EA
:101780006C6F6B514C5D6C514D59D8B004D04CC648
:101790006BF64DC66CF620EE10F04851D926495133
:1017A000DA22DEC450F6DDC451F6FF0E5015526F3A
:1017B000010E5115536F52514825546F5351492111
:1017C000556F220E5425016E000E5521026E61C622
:1017D00003F562C604F56BC605F56CC606F5B1ECFB
:1017E000CDF0060120EE0EF04851D9264951DA22FB
:1017F000000EDB8E6B514C5F6C514D5B4EC6D9F4C5
:101800004FC6DAF46B51DE266C51DD226B51612735
:101810006C51622320EE10F04851D9264951DA224A
:101820006B51DE266C51DE22000EDE22DE2220EE1F
:1018300010F04851D9264951DA2210EE0AF04851E9
:10184000E1264951E222DE50E65CDE50E658DE50E9
:10185000E658DE50E658D8A003D020EE0AF002D0B9
:1018600020EE10F04851D9264951DA22DEC45CF648
:10187000DEC45DF6DEC45EF6DEC45FF620EE0AF07E
:101880004851D9264951DA225CC6DEF45DC6DEF441
:101890005EC6DEF45FC6DEF4F7D420EE0EF04851EB
:1018A000D9264951DA22000EDB8C000E120048C600
:1018B000A6F549C6A7F56B0E0501A86F060EA96F20
:1018C00062ECC3F00601666F6651D8A408D020EE22
:1018D0000FF04851D9264951DA22DF50666F665120
:1018E000D8B402D06651120020EE0AF04851D92631
:1018F0004951DA224A51DE5C4B51DE584C51DE58D8
:101900004D51DE58D8B016D020EE0EF04851D926F1
:101910004951DA22DFB20ED020EE0AF04851D92622
:101920004951DA22DEC44AF6DEC44BF6DEC44CF678
:10193000DEC44DF620EE10F04851D9264951DA2286
:10194000DEC45EF6DEC45FF6DEC460F6DEC461F6B9
:10195000000E626F000E636F000E646F000E656F05
:1019600020EE10F04851D9264951DA2262C6DEF441
:1019700063C6DEF464C6DEF465C6DEF44A514B117C
:101980004C114D11D8B414D220EE0AF06B51D92667
:101990006C51DA22DEC44EF6DDC44FF64E51506F64
:1019A0004F51516F526B536B090ED89050375137CE
:1019B00052375337E82EF9D750C667F651C668F646
:1019C00052C669F653C66AF65E515F116011611125
:1019D000D8B495D0FF0E4A25016EFF0E4B21026E42
:1019E000FF0E4C21036EFF0E4D21046E67C605F5F8
:1019F00068C606F569C607F56AC608F593ECC9F02E
:101A000001C54EF602C54FF603C550F604C551F6A2
:101A1000FF0E5E25016EFF0E5F21026EFF0E60213C
:101A2000036EFF0E6121046E67C605F568C606F5F4
:101A300069C607F56AC608F593ECC9F001504E5D1A
:101A400002504F590350505904505159D8A057D003
:101A5000FF0E67254E6FFF0E68214F6FFF0E692145
:101A6000506FFF0E6A21516F4E1D526F4F1D536F05
:101A7000501D546F511D556FFF0E5E25566FFF0EA2
:101A80005F21576FFF0E6021586FFF0E6121596F64
:101A9000525156155A6F535157155B6F5451581583
:101AA0005C6F555159155D6F20EE10F04851D926E5
:101AB0004951DA225AC6DEF45BC6DEF45CC6DEF4B7
:101AC0005DC6DEF420EE10F04851D9264951DA22E5
:101AD000DE504A5FDE504B5BDE504C5BDD504D5BB1
:101AE00020EE14F04851D9264951DA22DEC46DF6B1
:101AF000DEC46EF6DEC46FF6DEC470F669D020EE8A
:101B000006F04851D9264951DA22DEC46DF6DEC40A
:101B10006EF6DEC46FF6DEC470F66D516E116F1195
:101B20007011D8A447D048C62BF649C62CF6000E33
:101B30002D6F000E2E6F000E2F6F000E306F96EC83
:101B400098F02BC66DF62CC66EF62DC66FF62EC617
:101B500070F66D056E116F117011D8A40AD020EEC9
:101B60000FF04851D9264951DA22020EDF6E020EDB
:101B700012006D2911E16E290FE16F290DE1702925
:101B8000D8A40AD020EE0FF04851D9264951DA22C4
:101B9000010EDF6E010E120020EE06F04851D9262C
:101BA0004951DA226DC6DEF46EC6DEF46FC6DEF48D
:101BB00070C6DEF420EE14F04851D9264951DA22DD
:101BC0006DC6DEF46EC6DEF46FC6DEF470C6DEF4FB
:101BD0006D516E116F117011D8A48AD0E9D0675180
:101BE0004A5F68514B5B69514C5B6A514D5B20EE1B
:101BF00010F04851D9264951DA226751DE26685142
:101C0000DE226951DE226A51DE2220EE0EF04851BA
:101C1000D9264951DA22DFA225D048C62BF649C67B
:101C20002CF66DC62DF66EC62EF66FC62FF670C654
:101C300030F696EC98F02BC66DF62CC66EF62DC6D7
:101C40006FF62EC670F66D516E116F117011D8A41B
:101C50001FD0000E4A6F000E4B6F000E4C6F000E2F
:101C60004D6F50D048C60AF649C60BF66DC60CF645
:101C70006EC60DF66FC60EF670C60FF668ECA0F0D5
:101C80000AC66DF60BC66EF60CC66FF60DC670F67C
:101C900006016D2907E16E2905E16F2903E170292D
:101CA000D8B470D770516F116E1104E1020E6D5DE2
:101CB000D8A055D720EE14F06B51D9266C51DA22FA
:101CC000DE506D5DDE506E59DE506F59DE5070593A
:101CD000D8B045D720EE14F04851D9264951DA2220
:101CE0006DC6DEF46EC6DEF46FC6DEF470C6DEF4DA
:101CF0004A51675D4B5168594C5169594D516A5968
:101D0000D8A06DD720EE10F04851D9264951DA22DB
:101D10004A51DE264B51DE224C51DE224D51DE224D
:101D2000FF0E4A154E6F010E4B154F6F000E4C15EE
:101D3000506F000E4D15516F4E514F1150115111F2
:101D4000D8B436D06BC60DF56CC60EF56DC60FF562
:101D50006EC610F56FC611F570C612F5C3ECC3F070
:101D60000DC562F60EC563F60FC564F610C565F6BF
:101D700006016251631164116511D8B4F0D64AC6E8
:101D80004EF64BC64FF64CC650F64DC651F60A0EEF
:101D900005D0D890513350334F334E33E82EF9D716
:101DA0004E5162274F516323505164235151652393
:101DB00020EE10F04851D9264951DA2210EE0AF0EF
:101DC0004851E1264951E222DE50E65CDE50E658F9
:101DD000DE50E658DE50E658D8B01CD020EE10F0A9
:101DE0004851D9264951DA2210EE0AF04851E1262D
:101DF0004951E222DEC4E6F4DEC4E6F4DEC4E6F4D1
:101E0000DEC4E6F420EE0EF04851D9264951DA221C
:101E1000000EDB8C20EE10F04851D9264951DA2211
:101E2000FF0EDE144E6F010EDE144F6F000EDE1437
:101E3000506F000EDE14516F4E514F115011511161
:101E4000D8B450D520EE18F04851D9264951DA229D
:101E50006251DE180AE16351DE1807E16451DE18B1
:101E600004E16551DE18D8B43DD520EE0EF048519E
:101E7000D9264951DA22DFAE33D0220E482505019A
:101E8000E26F000E060149210501E36F060120EE15
:101E900018F04851D9264951DA22DEC4E4F5DEC4EF
:101EA000E5F5DEC4E6F5DEC4E7F5000E0501E96FF1
:101EB000010EE86F060120EE01F06B51D9266C513E
:101EC000DA22DF5011ECC9F00009D8A42BD00601AA
:101ED00020EE0EF04851D9264951DA227F0EDF1646
:101EE000220E48250501E46F000E06014921050177
:101EF000E56F62C6E6F563C6E7F564C6E8F565C654
:101F0000E9F5000EEB6F010EEA6F060120EE01F01D
:101F10006B51D9266C51DA22DF5052ECC9F000091E
:101F2000D8B402D006012ED6060120EE18F0485192
:101F3000D9264951DA2262C6DEF463C6DEF464C6ED
:101F4000DEF465C6DEF4CED4AF51B011D8A402D011
:101F5000090E12003F0EB317B10E816F060E826F8D
:101F6000D40E836F060E846FB3C685F670EC84F0D2
:101F70000601D66FD651D8A4EAD2D4C6D7F6D5C6B4
:101F8000D8F6D70E6A6F060E6B6FB1C66CF6B2C686
:101F90006DF691ECB5F0D66FD651D8B4FEAF02D045
:101FA000060ED66FB3C6B4F61C0EB417D8B4E9D07B
:101FB000D651D8B40DD0040ED619D8A407D0D70E58
:101FC0006E6F060E6F6FFEECC2F0D66FB3870CD04B
:101FD000DBC6B4F6110EB417D8B402D0070E03D086
:101FE000B3A502D0080ED66FD651D8B4B3A7D5D0BA
:101FF000D9ECCFF001C5C0F602C5C1F603C5C2F6E3
:1020000004C5C3F60E0EF125016E000EF221026E1C
:10201000C0C603F5C1C604F5C2C605F5C3C606F5BC
:1020200068ECCBF0160EF125016E000EF221026E67
:10203000C0C603F5C1C604F5C2C605F5C3C606F59C
:1020400068ECCBF0D4C608F5D5C609F5F1C60AF59B
:10205000F2C60BF54BECCAF008C5C4F609C5C5F6C7
:102060000AC5C6F60BC5C7F6060120EE0BF0F15106
:10207000D926F251DA22200EDF6ED4C605F5D5C678
:1020800006F5F1C607F5F2C608F5000E096E000E5A
:102090000A6E000E0B6E000E0C6EF4ECCDF01C0EF2
:1020A0000601F125016E000EF221026E000E036E94
:1020B000000E046E000E056E000E066E68ECCBF08E
:1020C00020EE04F0D451D926D551DA22010EDF6E6C
:1020D000C451C511C611C711D8B45FD020EE2CF081
:1020E000D451D926D551DA22DEC4C8F6DEC4C9F6E9
:1020F000DEC4CAF6DEC4CBF6D70E2B6F060E2C6FED
:10210000C4C62DF6C5C62EF6C6C62FF6C7C630F60F
:10211000000E316F000E326F000E336F000E346F01
:10212000E2ECB3F0D66FD651D8A437D0D4C600F6BF
:10213000D5C601F6C8C602F6C9C603F6CAC604F675
:10214000CBC605F623ECC4F00601D66FFF0EC425FE
:10215000B46FFF0EC521B56FFF0EC621B66FFF0E1F
:10216000C721B76F20EE0CF0D451D926D551DA2211
:10217000B4C6DEF4B5C6DEF4B6C6DEF4B7C6DEF429
:102180000CD0D651D8A409D0DBA902D0040E04D0BB
:10219000B3B3DBA102D0070ED66FD651D8A420D09E
:1021A000B3B7B38D20EE2CF0D451D926D551DA2215
:1021B00010EE1CF0AF51E126B051E222DEC4E6F48D
:1021C000DEC4E6F4DEC4E6F4DEC4E6F420EE20F07D
:1021D000AF51D926B051DA22F1C6DEF4F2C6DDF4F1
:1021E000D651D8A4B4D1D4C608F5D5C609F5F1C6E0
:1021F0000AF5F2C60BF54BECCAF0060120EE06F02C
:10220000AF51D926B051DA2208C5DEF409C5DEF493
:102210000AC5DEF40BC5DEF41C0EF125016E000EBE
:10222000F221026EDEECC4F020EE0AF0AF51D926A6
:10223000B051DA2201C5DEF402C5DEF403C5DEF4D6
:1022400004C5DEF4AFC6D9F4B0C6DAF4D4C6DEF401
:10225000D5C6DDF420EE06F0D451D926D551DA22C8
:1022600010EE02F0AF51E126B051E222DEC4E6F4F6
:10227000DDC4E5F420EE0EF0AF51D926B051DA22DC
:10228000B3C6DFF420EE0FF0AF51D926B051DA22F9
:10229000DF6A20EE18F0AF51D926B051DA22DE6A9B
:1022A000DE6ADE6ADD6A20EE10F0AF51D926B05149
:1022B000DA22DE6ADE6ADE6ADD6A220EAF25016E90
:1022C000000EB021026E000E046E000E036E020EB0
:1022D000066E000E056EEBECCEF0B3AB38D120EEFF
:1022E0000AF0AF51D926B051DA22DE50DE10DE10EE
:1022F000DE10D8B42CD120EE0AF0AF51D926B0515F
:10230000DA2210EE10F0AF51E126B051E222DEC425
:10231000E6F4DEC4E6F4DEC4E6F4DEC4E6F420EE61
:102320000AF0D451D926D551DA22DEC4B4F6DDC480
:10233000B5F6B451B66FB551B76FB86BB96B090E3E
:10234000D890B637B737B837B937E82EF9D7B6C609
:10235000BCF6B7C6BDF6B8C6BEF6B9C6BFF620EE27
:1023600006F0AF51D926B051DA22DEC4D0F6DEC471
:10237000D1F6DEC4D2F6DEC4D3F620EE0AF0AF51B9
:10238000D926B051DA22DEC4CCF6DEC4CDF6DEC4E6
:10239000CEF6DEC4CFF634D0AFC60AF6B0C60BF622
:1023A000D0C60CF6D1C60DF6D2C60EF6D3C60FF6C1
:1023B00068ECA0F00AC6D0F60BC6D1F60CC6D2F671
:1023C0000DC6D3F60601D351D211D11106E1020E8A
:1023D000D05DD8B002D0020ED66FD02909E1D12944
:1023E00007E1D22905E1D329D8A402D0010ED66F86
:1023F000BC51CC5FBD51CD5BBE51CE5BBF51CF5BFD
:10240000D651D8A40AD0CC51BC5DCD51BD59CE51C6
:10241000BE59CF51BF59D8A0BFD720EE14F0AF514D
:10242000D926B051DA22D0C6DEF4D1C6DEF4D2C647
:10243000DEF4D3C6DEF4D651D8A489D0FF0ECC1575
:10244000B46F010ECD15B56F000ECE15B66F000E30
:10245000CF15B76FB451B511B611B711D8B477D045
:10246000D4C60DF5D5C60EF5D0C60FF5D1C610F5FC
:10247000D2C611F5D3C612F5C3ECC3F00DC5C8F62C
:102480000EC5C9F60FC5CAF610C5CBF60601C85170
:10249000C911CA11CB11D8A402D0020E57D0CCC694
:1024A000B4F6CDC6B5F6CEC6B6F6CFC6B7F60A0EAA
:1024B00005D0D890B733B633B533B433E82EF9D757
:1024C000C851B425B86FC951B521B96FCA51B621E9
:1024D000BA6FCB51B721BB6F20EE18F0AF51D926A0
:1024E000B051DA22B8C6DEF4B9C6DEF4BAC6DEF4FC
:1024F000BBC6DEF4220EAF250501E46F000E060117
:10250000B0210501E56F060120EE18F0AF51D92684
:10251000B051DA22DEC4E6F5DEC4E7F5DEC4E8F544
:10252000DEC4E9F5000E0501EB6F010EEA6F06014E
:1025300020EE01F0D451D926D551DA22DF5052ECE9
:10254000C9F00009D8B403D0010E0601D66F060108
:10255000D651D8B406D0AFC6D9F4B0C6DAF4DE6A24
:10256000DD6AD651120026C641F627C642F62AC6B3
:10257000D9F42BC6DAF4DE6ADD6A24C6A6F525C6D0
:10258000A7F54D0E0501A86F060EA96F62ECC3F00A
:1025900006013C6F3C51D8A40BD020EE0FF0245123
:1025A000D9262551DA22DF503C6F3C51D8B402D0F5
:1025B0003C51120020EE0EF02451D9262551DA228A
:1025C000DFB002D0070E120020EE10F02451D92601
:1025D0002551DA22DEC42CF6DEC42DF6DEC42EF63A
:1025E000DEC42FF620EE0AF02451D9262551DA2236
:1025F000DEC430F6DEC431F6DEC432F6DEC433F6B5
:102600002C51305D386F2D513159396F2E5132595F
:102610003A6F2F5133593B6F28512C6F29512D6F31
:102620002E6B2F6B2C51385D2D5139592E513A5943
:102630002F513B59D8B004D038C628F639C629F6F0
:1026400028512911D8B481D220EE10F02451D92676
:102650002551DA22FF0EDE142C6F010EDE142D6FD1
:10266000000EDE142E6F000EDE142F6F2C512D1174
:102670002E112F11D8A402D220EE10F02451D92609
:102680002551DA22DEC42CF6DEC42DF6DEC42EF689
:10269000DEC42FF60A0E05D0D8902F332E332D33FB
:1026A0002C33E82EF9D720EE0AF04D51D9264E51A1
:1026B000DA22DEC430F6DDC431F6FF0E3025326F8B
:1026C000FF0E3121336F2C513215436F2D513315CD
:1026D000446F43514411D8A46BD020EE10F0245124
:1026E000D9262551DA22DE50DE10DE10DE10D8A405
:1026F0000FD020EE06F02451D9262551DA22DEC46F
:102700003DF6DEC43EF6DEC43FF6DEC440F61CD025
:1027100024C60AF625C60BF620EE14F02451D9265D
:102720002551DA22DEC40CF6DEC40DF6DEC40EF648
:10273000DEC40FF668ECA0F00AC63DF60BC63EF606
:102740000CC63FF60DC640F6060140513F113E1142
:102750000EE1020E3D5DD8B00AD020EE0FF02451FC
:10276000D9262551DA22020EDF6E020E12003D2913
:1027700011E13E290FE13F290DE14029D8A40AD0FB
:1027800020EE0FF02451D9262551DA22010EDF6EFA
:10279000010E120020EE14F02451D9262551DA2220
:1027A0003DC6DEF43EC6DEF43FC6DEF440C6DEF4CF
:1027B0004DC60DF54EC60EF520EE14F02451D92667
:1027C0002551DA22DEC40FF5DEC410F5DEC411F5A2
:1027D000DEC412F5C3ECC3F00DC549F60EC54AF6CA
:1027E0000FC54BF610C54CF6060149514A114B1165
:1027F0004C11D8B4B2D74351492744514A23000E53
:102800004B23000E4C2328C62CF629C62DF6090EA4
:102810002E6FD8902D332C332E2FFBD72CC645F698
:102820002DC646F645514611D8B4A7D0455143258B
:102830002C6F465144212D6F20EE0AF04D51D926C0
:102840004E51DA222C51DE5C2D51DE58D8B010D01A
:1028500020EE0AF04D51D9264E51DA22DEC42CF674
:10286000DDC42DF643512C5D456F44512D59466F03
:1028700041C6E4F542C6E5F549C6E6F54AC6E7F5C0
:102880004BC6E8F54CC6E9F545C6EAF546C6EBF594
:1028900020EE01F04D51D9264E51DA22DF5052EC94
:1028A000C9F00009D8A4D9D0060120EE0EF02451B9
:1028B000D9262551DA22DFAE50D045512C6F465132
:1028C0002D6F2E6B2F6B20EE18F02451D926255139
:1028D000DA22DEC430F6DEC431F6DEC432F6DEC4FF
:1028E00033F64951305D346F4A513159356F4B5190
:1028F0003259366F4C513359376F2C51345D2D514D
:1029000035592E5136592F513759D8B026D020EE8F
:1029100018F02451D9262551DA22DEC42CF6DDC464
:102920002DF649512C5F4A512D5B090ED8902C375A
:102930002D37E82EFBD72C514125016E2D51422118
:10294000026E220E2425036E000E2521046E020E57
:10295000066E000E056EB1ECCDF045C62CF646C6EF
:102960002DF6090ED89006012C372D37E82EFAD710
:102970002CC647F62DC648F6C9D020EE18F02451D3
:10298000D9262551DA224951DE180AE14A51DE18CA
:1029900007E14B51DE1804E14C51DE18D8B45FD08A
:1029A00020EE0EF02451D9262551DA22DFAE33D0A5
:1029B000220E24250501E26F000E060125210501E6
:1029C000E36F060120EE18F02451D9262551DA22B2
:1029D000DEC4E4F5DEC4E5F5DEC4E6F5DEC4E7F505
:1029E000000E0501E96F010EE86F060120EE01F00F
:1029F0004D51D9264E51DA22DF5011ECC9F00009B1
:102A0000D8A42BD0060120EE0EF02451D926255152
:102A1000DA227F0EDF16220E24250501E46F000E58
:102A2000060125210501E56F49C6E6F54AC6E7F529
:102A30004BC6E8F54CC6E9F5000EEB6F010EEA6FE8
:102A4000060120EE01F04D51D9264E51DA22DF5019
:102A500052ECC9F00009D8B402D0060191D60601A3
:102A600020EE18F02451D9262551DA2249C6DEF489
:102A70004AC6DEF44BC6DEF44CC6DEF420EE10F09F
:102A80002451D9262551DA22DEC42CF6DDC42DF6D8
:102A9000FF0E2C152E6F010E2D152F6F2E510008D5
:102AA000476F2F51D8A0E82A0208486F4751285D88
:102AB00048512959D8B004D028C647F629C648F647
:102AC00041C601F542C602F520EE10F02451D92688
:102AD0002551DA22DEC42CF6DDC42DF6FF0E2C15AE
:102AE0002E6F010E2D152F6F2E512425306F2F5173
:102AF0002521316F220E3025036E000E3121046E28
:102B000047C605F548C606F5B1ECCDF006014751BC
:102B1000285F4851295B2AC6D9F42BC6DAF44751FD
:102B2000DE264851DD22475141274851422320EEFD
:102B300010F02451D9262551DA224751DE2648517A
:102B4000DE22000EDE22DE227BD5000E120053C5EF
:102B5000D9F454C5DAF4DEC4F6F4DDC4F7F4000E9B
:102B6000F86E0800F550250AD8A4CBD253C5D9F485
:102B700054C5DAF4DE2A000EDD22000E0701146FC0
:102B8000000E136F13C7FFF615691669000E0501D5
:102B90000BD00601FF8353C5D9F454C5DAF4DE2AFD
:102BA000000EDD2213D0010E8C6F10D053C5D9F466
:102BB00054C5DAF4DEC4F6F4DDC4F7F4000EF86EA2
:102BC0000800F550300AD8B4E4D7EDD705018C5190
:102BD000D8B4ECD753C507F554C508F555C509F564
:102BE00056C50AF53AECC5F007C513F708C514F742
:102BF000070114AF07D00601FF810701136D141FF1
:102C0000D8B0142B53C5D9F454C5DAF4DEC4F6F4A5
:102C1000DDC4F7F4000EF86E0800F5502E0AD8A4B3
:102C200015D053C5D9F454C5DAF4DE2A000EDD22DE
:102C300053C507F554C508F555C509F556C50AF538
:102C40003AECC5F007C515F708C516F753C5D9F412
:102C500054C5DAF4DEC4F6F4DDC4F7F4000EF86E01
:102C60000800F550630AD8A423D053C5D9F454C53D
:102C7000DAF4DE2A000EDD2255C5D9F456C5DAF4A1
:102C8000DFC457F5020EDE26DFC458F5000EDD2244
:102C900057C5D9F458C5DAF4DF500501916F51C515
:102CA0000BF552C50CF591C50DF582ECC8F012007C
:102CB00053C5D9F454C5DAF4DEC492F5DDC493F5F6
:102CC00092C5F6F493C5F7F4000EF86E0800F5C44B
:102CD00091F508D0924B932B17D0690E01D0000EBE
:102CE000916F12D005019151580AD8B4F6D73C0A19
:102CF000D8B4F3D70D0AD8B4F0D7050AD8B4EAD7B8
:102D0000140AD8B4EAD7EBD792C5F6F493C5F7F412
:102D1000000EF86E0800F550640AD8B43FD092C592
:102D2000F6F493C5F7F4000EF86E0800F550690A42
:102D3000D8B434D057D055C5D9F456C5DAF4DFC469
:102D400057F5020EDE26DFC458F5000EDD2257C50A
:102D5000D9F458C5DAF4DEC48DF5DDC48EF5000E65
:102D60008EBFFF0E8F6F906F20D055C5D9F456C51A
:102D7000DAF4DFC457F5040EDE26DFC458F5000E82
:102D8000DD2257C5D9F458C5DAF4DEC48DF5DEC4AA
:102D90008EF5DEC48FF5DEC490F507D09151690A37
:102DA000D8B4C9D7050AD8B4E0D7010E9225576E1A
:102DB000000E9321586E53C5D9F454C5DAF457C5A3
:102DC000DEF458C5DDF451C51BF552C51CF58DC5A3
:102DD0001DF58EC51EF58FC51FF590C520F5A8EC15
:102DE000B8F0120092C5F6F493C5F7F4000EF86E31
:102DF0000800F550780AD8B440D092C5F6F493C5CF
:102E0000F7F4000EF86E0800F550580AD8B435D023
:102E100070D055C5D9F456C5DAF4DFC457F5020EA3
:102E2000DE26DFC458F5000EDD2257C5D9F458C59B
:102E3000DAF4DEC459F5DDC45AF559C58DF55AC525
:102E40008EF58F6B906B20D055C5D9F456C5DAF44A
:102E5000DFC457F5040EDE26DFC458F5000EDD2270
:102E600057C5D9F458C5DAF4DEC48DF5DEC48EF545
:102E7000DEC48FF5DEC490F507D09151690AD8B44D
:102E8000C8D7050AD8B4E0D7010E9225576E000EB8
:102E90009321586E53C5D9F454C5DAF457C5DEF4FE
:102EA00058C5DDF418D051C51BF552C51CF58DC5AC
:102EB0001DF58EC51EF58FC51FF590C520F592C571
:102EC000F6F493C5F7F4000EF86E0800F5C421F58A
:102ED000C9ECBEF0120092C5F6F493C5F7F4000EEB
:102EE000F86E0800F550580AD8B4DDD7200AD8B4D7
:102EF000DAD7000E8C6F53C5D9F454C5DAF4DEC4AA
:102F0000F6F4DDC4F7F4000EF86E0800F550730A0D
:102F1000D8A40AD053C5D9F454C5DAF4DE2A000E79
:102F2000DD22010E8C6F44D053C5D9F454C5DAF4B8
:102F3000DEC4F6F4DDC4F7F4000EF86E0800F550B8
:102F40006C0AD8A435D053C5D9F454C5DAF4DEC41C
:102F500057F5DDC458F5010E5726000E582257C507
:102F6000F6F458C5F7F4000EF86E0800F5506C0A38
:102F7000D8A41ED053C5D9F454C5DAF4DEC457F52D
:102F8000DDC458F5020E5726000E582257C5F6F438
:102F900058C5F7F4000EF86E0800F550730AD8A46F
:102FA00007D0030E53C5D9F454C5DAF4DE26B7D7DB
:102FB0008C51D8B41BD051C50BF552C50CF555C575
:102FC000D9F456C5DAF4DFC457F5020EDE26DFC4A5
:102FD00058F5000EDD2257C5D9F458C5DAF4DEC421
:102FE0000DF5DDC40EF502ECBAF0120053C5D9F4AC
:102FF00054C5DAF4DEC492F5DDC493F592C5F6F457
:1030000093C5F7F4000EF86E0800F5C491F508D0EA
:10301000924B932B10D06C0E01D0000E916F0BD001
:1030200091514C0AD8B4F4D72A0AD8B4F4D70A0A72
:10303000D8B4EED7F2D792C5F6F493C5F7F4000EE4
:10304000F86E0800F550660AD8B41AD052D055C5AB
:10305000D9F456C5DAF4DFC457F5040EDE26DFC412
:1030600058F5000EDD2257C5D9F458C5DAF4DEC490
:103070008DF5DEC48EF5DEC48FF5DEC490F507D085
:1030800091514C0AD8B4E3D7200AD8B4E0D7010E46
:103090009225576E000E9321586E53C5D9F454C52E
:1030A000DAF457C5DEF458C5DDF418D051C548F53B
:1030B00052C549F58DC54AF58EC54BF58FC54CF502
:1030C00090C54DF592C5F6F493C5F7F4000EF86E71
:1030D0000800F5C44EF500EC80F0120092C5F6F43D
:1030E00093C5F7F4000EF86E0800F550660AD8B4E0
:1030F000DDD753C5D9F454C5DAF4DE2A000EDD223B
:10310000120053C5D9F454C5DAF4DEC4F6F4DDC4B4
:10311000F7F4000EF86E0800F550026E036A51C510
:1031200004F552C505F596ECC7F0E3D72BC6D9F4E4
:103130002CC6DAF4DEC442F6DDC443F62D512E115E
:103140002F113011D8A42DD020EE0CF04251D926E9
:103150004351DA22DEC43AF6DEC43BF6DEC43CF666
:10316000DEC43DF63A513B113C113D11D8B410D0AC
:1031700020EE14F04251D9264351DA22DE503A5D56
:10318000DE503B59DE503C59DE503D59D8A05BD053
:10319000010E3A6F000E3B6F000E3C6F000E3D6F4C
:1031A00052D02BC60AF62CC60BF62DC60CF62EC630
:1031B0000DF62FC60EF630C60FF668ECA0F00AC664
:1031C00044F60BC645F60CC646F60DC647F6060194
:1031D0004751461145110DE1020E445DD8B009D0AA
:1031E000010E2B6F000E2C6F000E2D6F000E2E6F38
:1031F0001200442910E145290EE146290CE1472936
:10320000D8A409D044C62BF645C62CF646C62DF6E2
:1032100047C62EF6120020EE14F04251D926435133
:10322000DA22DE50445DDE504559DE504659DE500C
:103230004759D8A0E7D72DC63AF62EC63BF62FC67B
:103240003CF630C63DF620EE10F04251D9264351EF
:10325000DA22DE50DE10DE10DE10D8A409D0000E17
:103260002B6F000E2C6F000E2D6F000E2E6F1200B4
:10327000000E3E6F000E3F6F000E406F000E416F5C
:103280002D513A1909E12E513B1906E12F513C19F4
:1032900003E130513D19D8A486D0010E3A253E6F86
:1032A000000E3B213F6F000E3C21406F000E3D2180
:1032B000416F20EE14F04251D9264351DA22DE50FC
:1032C0003E5DDE503F59DE504059DE504159D8A096
:1032D00008D0020E3E6F000E3F6F000E406F000ED2
:1032E000416F2BC60AF62CC60BF63EC60CF63FC63F
:1032F0000DF640C60EF641C60FF668ECA0F00AC601
:1033000044F60BC645F60CC646F60DC647F6060152
:103310004405451146114711D8B474D7442907E133
:10332000452905E1462903E14729D8B46BD7445123
:10333000451146114711D8B436D020EE0CF0425159
:10334000D9264351DA22DEC444F6DEC445F6DEC493
:1033500046F6DEC447F647514611451104E1020E18
:10336000445DD8A018D020EE14F04251D926435124
:10337000DA22DE50445DDE504559DE504659DE50BB
:103380004759D8B008D044C63AF645C63BF646C6BB
:103390003CF647C63DF6000E3E6F000E3F6F000E36
:1033A000406F000E416F3E513F1140114111D8A4B2
:1033B00068D03AC63EF63BC63FF63CC640F63DC630
:1033C00041F6010E3E27000E3F234023412320EE0D
:1033D00014F04251D9264351DA22DE503E5DDE50D0
:1033E0003F59DE504059DE504159D8A010D0020E4E
:1033F0003E6F000E3F6F000E406F000E416F3D515B
:103400003C113B1104E1020E3A5DD8A028D72BC62F
:103410000AF62CC60BF63EC60CF63FC60DF640C6A5
:103420000EF641C60FF668ECA0F00AC644F60BC6CD
:1034300045F60CC646F60DC647F606014451451141
:1034400046114711D8B41DD0440545114611471106
:10345000D8B4D8D6442907E1452905E1462903E136
:103460004729D8B4CFD63A513E19ABE13B513F1969
:10347000A8E13C514019A5E13D514119D8B4EFD61E
:10348000A0D742C60AF643C60BF63EC60CF63FC6A8
:103490000DF640C60EF641C60FF6FF0E106FFF0E7A
:1034A000116FFF0E126FFF0E136FD8EC9AF0396F89
:1034B0003951D8A41DD02D512E112F113011D8B44F
:1034C00017D042C60AF643C60BF62DC60CF62EC61A
:1034D0000DF62FC60EF630C60FF63EC610F63FC6E6
:1034E00011F640C612F641C613F6D8EC9AF0396FC1
:1034F0003951D8A444D020EE0CF04251D926435182
:10350000DA223EC6DEF43FC6DEF440C6DEF441C633
:10351000DEF420EE10F04251D9264351DA2210EEAB
:1035200014F04251E1264351E222FE0EE624356FAB
:10353000FF0EE620366FFF0EE620376FFF0EE62007
:10354000386FDE50355DDE503659DE503759DE506B
:103550003859D8A00BD020EE10F04251D926435153
:10356000DA22DE06000EDE5ADE5ADE5A20EE05F0C2
:103570004251D9264351DA22000EDB8010D03905A2
:10358000D8B409D0010E3E6F000E3F6F000E406FA1
:10359000000E416F04D03E693F69406941693EC6F3
:1035A0002BF63FC62CF640C62DF641C62EF612006D
:1035B000020E2A6F0F510E110D1104E1020E0C5D67
:1035C000D8A0F4D120EE14F00A51D9260B51DA22FA
:1035D000DE500C5DDE500D59DE500E59DE500F5995
:1035E000D8A0D6D1E3D10CC628F60DC629F6D890BE
:1035F0002931156F2831146F1451282715512923AB
:103600000AC600F60BC601F620EE20F00A51D926B4
:103610000B51DA22DEC414F6DEC415F6DEC416F64B
:10362000DEC417F628C618F629C619F6090E1A6F51
:10363000D890193318331A2FFBD718511425026F5D
:1036400019511521036F000E1621046F000E17216A
:10365000056F23ECC4F006012A6F2A51D8A4A6D125
:10366000FF0E2815146F010E2915156F14510A2528
:10367000166F15510B21176F300E1625266F000E91
:103680001721276F284B292B0CB103D010C622F627
:103690000FD010C614F6143BF00E141726C6D9F43A
:1036A00027C6DAF4DF500F0B1411156F1551226F76
:1036B000236B26C6D9F427C6DAF422C6DFF420EE3F
:1036C00004F00A51D9260B51DA22010EDF6E0AC628
:1036D00000F60BC601F620EE20F00A51D9260B5158
:1036E000DA22DEC414F6DEC415F6DEC416F6DEC435
:1036F00017F628C618F629C619F6090E1A6FD890BB
:10370000193318331A2FFBD718511425026F19518A
:103710001521036F000E1621046F000E1721056F8F
:1037200023ECC4F006012A6F2A51D8A43FD1FF0E22
